:020000040000FA
:100000000C94FB000C9425010C9425010C94250103
:100010000C9425010C9425010C9425010C942501C8
:100020000C9425010C94A1060C9425010C94250137
:100030000C9425010C94991D0C9425010C94250118
:100040000C9425010C9425010C9408440C94250172
:100050000C9425010C9425010C9425010C94250188
:100060000C9425010C9425010C94903A0C942501D4
:100070000C94F1460C9427470C9425010C9425010F
:100080000C94890E0C9425010C9425011E011B0172
:100090001801150112010F010C01090106010301EC
:1000A0000001FD003601330130012D012A01270135
:1000B00024012101750171016D0169016501610171
:1000C0005D015901550151014D01490145014101B0
:1000D0003D013901E500E200E900ED00F900F5001D
:1000E000F100484800432F4F004652450053594EF7
:1000F0000045585000534C56004D535400204200C8
:1001000041230020410047230020470046230020D0
:1001100046002045004423002044004323002043A0
:10012000002B34002B33002B32002B31002B3000FE
:100130002D31002D32002D3300204F480020434840
:10014000004558540041434300204D5400204C5476
:100150000020534400204244004352480052494486
:10016000002020200048434C0052494D00204854B4
:100170000020202000545247000000000203000A23
:100180000B0000000005040908000000000000004A
:1001900000000000000000000001020408102040E0
:1001A0008001020408102040800102040810204051
:1001B00080010204081020408002020202020202B2
:1001C00002040404040404040403030303030303F8
:1001D00003010101010101010100002200250028A5
:1001E000002B0000002100240027002A0000CC1D65
:1001F000F73D49425B4711241FBECFEFD0E4DEBF7D
:10020000CDBF13E0A0E0B1E0ECE4F4E900E00BBF07
:1002100002C007900D92AC3CB107D9F728E1ACECD5
:10022000B3E001C01D92A633B207E1F710E0CBEFB7
:10023000D0E004C02197FE010E944E49C73FD1077C
:10024000C9F70E94C9480C94244A0C94000081E02C
:1002500080934F04089581E080934E04089581E0D7
:1002600080934D04089581E191E19093021280936F
:1002700001124091A40C29EC31E0429FC001439F40
:10028000900D11248259914FFC01EB58FF4F2FE73D
:10029000208334962EE12083349620838F579F4FFE
:1002A000FC01208308952091F916222359F0213072
:1002B00061F42DB32093F7163DB32091F8162095E5
:1002C00023232DBB8CBD9DBD08952FB7F89420939B
:1002D000F716F8CF8EBD00000DB407FEFDCF8EB52A
:1002E00008959091F916992339F08091F71691307D
:1002F00011F48DBB08958FBF0895FC011482138201
:1003000081E06115710509F480E08083918189178E
:1003100041F09281911107C0672B11F091E0938316
:10032000828381830895672BD9F791E09483F8CF76
:100330008F929F92AF92BF92CF92DF92EF92FF92F5
:10034000CF93DF936091EC137091ED13882361F0EC
:10035000CB01DF91CF91FF90EF90DF90CF90BF90D6
:10036000AF909F908F9008952091020430910304E4
:10037000EEE2F3E150E040E0B1E0812C912C540139
:1003800083941382EB01042E02C0D695C7950A947C
:10039000E2F78C2F817080839181891769F09281B7
:1003A00091110AC0C0FF08C0B38396819F5F9683F6
:1003B000913079F09230D1F081834F5F5F4F3B965F
:1003C00040315105F1F63093030420930204B90142
:1003D000BFCF75016401042E04C0CC0CDD1CEE1CE3
:1003E000FF1C0A94D2F72C293D29E6CF168275010D
:1003F0006401042E04C0CC0CDD1CEE1CFF1C0A940E
:10040000D2F7C094D0942C213D21D6CF2F923F9289
:100410004F925F926F927F928F929F92AF92BF9214
:10042000CF92DF92EF92FF920F931F93CF93DF93C0
:1004300000D000D01F92CDB7DEB72090EC133090E3
:10044000ED137090A30C6091E5010AEF060F0B838A
:1004500014EF160F1C8320910C122A83A62FB0E0F4
:10046000EEE2F3E17091A40C29EC31E0729FA0015F
:10047000739F500D11249D0174E0220F331F7A9554
:10048000E1F7420F531F4259514F30E020E071E035
:10049000C12CD12C7601C3948D0107561E4F480103
:1004A0008D0107571E4F5801022F1382D101022ED2
:1004B00002C0B695A7950A94E2F71A2F1170198316
:1004C00010836180161539F16280611022C0A0FF8F
:1004D00020C07383DC01022E02C0B695A7950A9452
:1004E000E2F7A170BB276F3041F01B81123028F07A
:1004F0001C81123010F0611143C0AB2B61F1A2E0FE
:10050000A683A681A13049F1A23009F4B4C07724B2
:100510007394B981B1832F5F3F4F3B9620313105F2
:1005200019F67092A30C0F900F900F900F900F90F0
:10053000DF91CF911F910F91FF90EF90DF90CF90BF
:10054000BF90AF909F908F907F906F905F904F90F3
:100550003F902F9008957683D4CF2601370104C0B1
:10056000440C551C661C771C0A95D2F784299529E2
:10057000D901AB5BBF4F3D01640E751ED40171C044
:100580001A81112309F442C0AB2BB1F1D901AB5B45
:10059000BF4FA40FB51FAC91A7FF2BC01A2F1F7719
:1005A000D5017C90711610F5B3E0B683A681A23018
:1005B00029F1A33009F45FC0A13009F0A8CF2601CA
:1005C000370104C0440C551C661C771C0A95D2F7F1
:1005D00084299529D901AB5BBF4F3D01640E751E7F
:1005E000D5010C910058D3010C9391CF12E01683E2
:1005F000DDCFA3E0A683DACF7683D8CFD901AB5B7A
:10060000BF4F3D01640E751ED401EBCFAB2B89F1BA
:10061000D901AB5BBF4FA40FB51F1C9117FD26C0BE
:10062000D5017C907116F8F4B3E0B683A681A230B0
:1006300009F49ECFA330F9F0A13009F068CF26016C
:10064000370104C0440C551C661C771C0A95D2F770
:1006500084299529D901AB5BBF4F3D01640E751EFE
:10066000D5010C91C0CF12E01683E0CFA3E0A683A2
:10067000DDCF7683DBCF16822601370104C0440C20
:10068000551C661C771C0A95D2F74094509484211F
:1006900095213DCF6F927F928F929F92AF92BF92A2
:1006A000CF92DF92EF92FF920F931F93CF93DF933E
:1006B00060914B1270914C1270934A1260934912E0
:1006C000E091EC13F091ED13F0934C12E0934B1288
:1006D0006E177F0709F468C04091780C5091790C2F
:1006E000209123123091241280902212A091B50102
:1006F00081E090E08C0102C0000F111FAA95E2F783
:10070000E0900302F0900402A091B6015C0102C0E7
:10071000AA0CBB1CAA95E2F7C0910502D091060273
:1007200090E080E0CC24C394D12CDF01082E02C0DD
:10073000B695A7950A94E2F7A0FF2AC0DB01082E20
:1007400002C0B695A7950A94E2F7A0FD21C0DC018E
:10075000A755BE4FAC91360102C0660C771CAA9516
:10076000E2F7D30146255B27DC01AA0FBB1FA55189
:10077000BE4F0D90BC91A02D2A273B27882041F029
:10078000ACE07A2E87111FC04A255B252C273D2718
:1007900001968031910549F65093790C4093780C7D
:1007A0003093241220932312DF91CF911F910F9148
:1007B000FF90EF90DF90CF90BF90AF909F908F9081
:1007C0007F906F900895ADE08A13E2CF40275127C4
:1007D0002E253F25DDCF0F931F93CF93DF9360919D
:1007E0004712709148127093461260934512E0913F
:1007F000EC13F091ED13F0934812E09347126E174B
:100800007F0709F441C040911C0450911D042091C0
:100810001E0430911F0490E080E0C1E0D0E0DF01D1
:10082000082E02C0B695A7950A94E2F7A0FF20C053
:10083000DB01082E02C0B695A7950A94E2F7A0FD49
:1008400017C0DC01A755BE4FAC918E0102C0000F4E
:10085000111FAA95E2F7D80140275B27DC01AA0FF8
:10086000BB1FA551BE4F0D90BC91A02D2A273B2741
:1008700001968031910599F650931D0440931C0414
:1008800030931F0420931E04DF91CF911F910F918D
:10089000089581E00E94980130E020E0AC01022E32
:1008A00002C0569547950A94E2F740FF02C0822F96
:1008B00008952F5F3F4F2031310581F7089581E082
:1008C0000E949801AC0130E020E090E0BA01022ED5
:1008D00002C0769567950A94E2F760FF05C09130F3
:1008E00011F4822F089591E02F5F3F4F20313105A1
:1008F00069F780E00895EEE2F3E116823B9683E12A
:10090000EE3DF807D1F710921E13109208131092C3
:10091000FD121092131310928F12089581110C94EE
:10092000330110920212109201124091A40C29EC92
:1009300031E0429FC001439F900D11248259914F95
:10094000FC01EB58FF4F20E520833496208334963A
:1009500020838F579F4FFC012083089584B1886DB9
:1009600084B98AB1806F8AB981B18C6E81B9129ACB
:1009700061E088E10E944F4561E089E10E944F45B6
:1009800061E08AE10E944F4561E08BE10E944F45A2
:1009900060E080E00E944F4560E081E00E944F45AA
:1009A0000E9452418FEF0E9468418AEF96E10C94B9
:1009B0000F420F931F930E9452440091DE13109137
:1009C000DF132091E0133091E113601B710B820B58
:1009D000930B663071058105910508F44BC00E94A8
:1009E00052446093DE137093DF138093E01390936F
:1009F000E11380915804909159040E9453015C9A2C
:100A000080E00E946A018093E21380E00E946A0104
:100A10008093E41380E00E946A018093E61380E0F3
:100A20000E946A018093E81380E00E946A0180932B
:100A3000EA135C980E94710183B182FB882780F9D8
:100A400080935304E2EEF3E130E020E090814181B5
:100A5000941304C0D901A451BC4E9C932F5F3F4F07
:100A600032962530310591F790915404891302C0D4
:100A70008093520480915804909159040E9453012C
:100A80005C9A80E00E946A018093E31380E00E94F8
:100A90006A018093E51380E00E946A018093E71366
:100AA00080E00E946A018093E91380E00E946A015D
:100AB0008093EB135C980E94710183B182FB8827BD
:100AC00080F9809354041F910F9108950F931F9301
:100AD000CF93DF930E94D904C091EE13D091EF130E
:100AE0001091F013C4FB882780F980935112C3FB47
:100AF000882780F9809350126C2F647070E082E533
:100B000092E10E947D016D2F687070E08DE592E1A9
:100B10000E947D016D2F607870E088E692E10E946E
:100B20007D016D2F607470E08CEE92E10E947D017A
:100B30006D2F607270E081EE92E10E947D016C2F5A
:100B4000607870E083E293E10E947D016C2F617018
:100B500070E088E193E10E947D016D2F607170E08B
:100B600082E093E10E947D016C2F627070E087EF5C
:100B700092E10E947D016C2F607470E08AEA92E13C
:100B80000E947D01C0726C2F70E08BEC92E10E949C
:100B90007D016D2F647070E08FE992E10E947D010C
:100BA0006D2F627070E084E992E10E947D01612FF7
:100BB000647070E086ED92E10E947D016D2F61709E
:100BC00070E085EB92E10E947D01612F627070E020
:100BD00089E892E10E947D01612F617070E08EE7EB
:100BE00092E10E947D016091520470E08DE093E1FA
:100BF0000E947D016091EC137091ED1383E792E107
:100C00000E947D011092C4121092C31281E0912FB4
:100C1000987013FF80E08093C0122091C112821758
:100C200011F18091C21281110FC0992369F081E006
:100C30008093C3120E9452446093C7127093C812EB
:100C40008093C9129093CA128091C0129091C212DF
:100C5000992339F0811105C091E09093C41210924C
:100C6000C5128093C2128091C0128093C1128091EC
:100C7000C2128823B1F00E9452440091C712109111
:100C8000C8122091C9123091CA12601B710B820BDD
:100C9000930B693E73408105910518F081E08093C4
:100CA000C512EEE2F3E1138214823B9683E1EE3D3E
:100CB000F807C9F7DF91CF911F910F910895FF9227
:100CC0000F931F93CF93DF93082FF92ED62F172F53
:100CD000C42F80915804909159040E9453012C987C
:100CE0008F2D0E946A01802F0E946A01812F0E942D
:100CF0006A018D2F0E946A018C2F0E946A012C9A32
:100D0000DF91CF911F910F91FF900C947101CF93C0
:100D1000DF93EC0180915804909159040E94530193
:100D20002B988D2F0E946A018C2F0E946A012B9AAA
:100D30000E947101D093730CC093720CDF91CF911C
:100D400008951F920F920FB60F9211240BB60F92B7
:100D50002F933F934F935F936F937F938F939F93C3
:100D6000AF93BF93EF93FF931092B1001092B20034
:100D70008091740C9091750C0E948706FF91EF9101
:100D8000BF91AF919F918F917F916F915F914F91A3
:100D90003F912F910F900BBE0F900FBE0F901F90A1
:100DA0001895CF93DF93803808F08FE790E2899F02
:100DB000E0011124D06180915804909159040E945F
:100DC00053015D988D2F0E946A018C2F0E946A0149
:100DD0005D9ADF91CF910C94710180915A049091AA
:100DE0005B040E9453015C9A80E00E946A0180E0EB
:100DF0000E946A0180E00E946A018093360480E0CC
:100E00000E946A0180E00E946A01809335045C9828
:100E10000C9471010F931F93CF93C82F80913404CA
:100E2000882361F00E9452446093FE037093FF0395
:100E30008093000490930104109234040E94524461
:100E40000091FE031091FF032091000430910104F2
:100E5000AB01BC01401B510B620B730B8C2F90E05C
:100E6000B0E0A0E0481759076A077B0738F01299ED
:100E700005C080913404811101C0129ACF911F9155
:100E80000F91089523B121702093570433B132702C
:100E900030935604211108C040915504442321F099
:100EA000332329F0860F971F20935504089530911E
:100EB0005112332389F030915104313049F010F050
:100EC000323091F78A3091057CF3861B970BECCF7B
:100ED00080319105D4F7E8CF0097B9F7E5CF0F93AC
:100EE0001F93CF93DF938091B20080932304C2E0DD
:100EF000D0E001E010E098010C2E02C0220F331F59
:100F00000A94E2F78091720C9091730C82239323E0
:100F1000892BF1F080912304FE01EC5DFB4F908161
:100F2000891B8032A8F08091720C9091730C2095EF
:100F30003095822393230E9487068091720C9091B2
:100F4000730C8D7F892B21F410924412109243125E
:100F50002196CC30D10579F6DF91CF911F910F9179
:100F60000895809120128111DDC00E94D9048091E2
:100F7000EE1383FB882780F9809350126091EF1362
:100F8000607170E082E093E10E947D016091F01356
:100F9000617070E08EE792E10E947D016091F01334
:100FA000627070E089E892E10E947D016091F01327
:100FB000647070E086ED92E10E947D016091EE1315
:100FC000617070E088E193E10E947D0160915204BC
:100FD00070E08DE093E10E947D0180918112882371
:100FE000D9F080913112882309F462C081E08093A6
:100FF0003212109231128091321241E060E0882367
:1010000009F45DC084E094E00E9405436FE172E062
:1010100084E094E00E94C44780918C128823D9F028
:1010200080913212882309F451C01092321281E06B
:10103000809331128091311241E060E0882309F4FD
:101040004AC084E094E00E94054361E472E084E0D9
:1010500094E00E94C44780910513882339F081E011
:1010600090912004911180E08093200480913112AE
:101070008823C1F10E944A0380911B13882351F0F9
:101080008091780C9091790C21E082279093790CD3
:101090008093780C80910F13882309F443C0109239
:1010A000790C1092780C1092241210922312089549
:1010B0008091321291E08927809332129CCF84E094
:1010C00094E00E94054360E372E0A2CF8091311268
:1010D00091E08927ADCF84E094E00E94054360E36E
:1010E00072E0B5CF809132128823E1F00E94EB03C9
:1010F00080911B13882351F080911C0490911D0452
:1011000021E0822790931D0480931C0480910F138B
:10111000882341F010921D0410921C0410921F04A9
:1011200010921E04089550913212E0913112809174
:1011300021126091200470E0762F66277295707FEF
:10114000782B852F90E0982F88279295990F907E85
:10115000682B792B8E2F90E090E4899F902D882723
:101160001124682B792B8091D81290912012892B11
:1011700090E09927869597958827682B792B70930F
:101180003D1260933C1240913E12209143123091E7
:101190004412EE2321F19091780C9170492B8091AB
:1011A000231290912412822B932B0E945F0682B10E
:1011B00082FB882780F991E0892790912004892378
:1011C00090915012990F892B80933E128091431277
:1011D0009091441290932204809321040895C901B0
:1011E000552319F390911C049170492B80911E0492
:1011F00090911F04D8CF60E372E084E094E00C94F7
:10120000C4470F931F93CF93DF93D0E0C0E0082F24
:1012100010E0C017D1073CF461EA84E094E00E943A
:10122000CC472196F6CFDF91CF911F910F91089572
:1012300040E064E084E094E00E94054362E572E0EF
:1012400084E094E00C94C44740E060E084E094E0E3
:101250000E9405436BE572E084E094E00E94C4477D
:1012600041E060E084E094E00E9405430E94FB08B6
:1012700041E060E084E094E00E9405436CE672E0A7
:1012800084E094E00E94C44741E061E084E094E09F
:101290000E9405438EE00E94010941E06FE084E076
:1012A00094E00E9405436EE672E084E094E00E94C0
:1012B000C4472091A40C89EC91E0289FF001299F5C
:1012C000F00D1124EA5CFF4E60816F5F41E084E025
:1012D00094E00E9405436BED84E094E00C94CC47CD
:1012E00040E060E084E094E00E94054360E772E043
:1012F00084E094E00E94C44741E060E084E094E030
:101300000E9405430E94FB0841E060E084E094E015
:101310000E94054361E872E084E094E00C94C447C5
:1013200040E060E084E094E00E94054362E972E0FE
:1013300084E094E00E94C44741E060E084E094E0EF
:101340000E9405430E94FB0841E060E084E094E0D5
:101350000E94054363EA72E084E094E00C94C44781
:101360002F923F924F925F926F927F928F929F92B5
:10137000AF92BF92CF92DF92EF92FF920F931F93A3
:10138000CF93DF938091501280932E12409151128F
:1013900040932F126091541260932D125091CD12F0
:1013A00050932C122091F91220932B12E091AC1241
:1013B000E0932A12982F990F84E0489F800111240E
:1013C000A8E06A9FB0011124B0E15B9FE001112405
:1013D00080E2E89FF0011124A0E42A9F90011124EB
:1013E000A0910F12892F802BAA2309F4F9C08068DD
:1013F000862B8C2B8E2B822B80933E128091E601C4
:101400009091E7018130910509F4F6C0D1E0009791
:1014100009F0D0E0D0933A128330910509F4EFC07F
:10142000E1E08230910509F0E0E0E0933612F091BE
:10143000EE128430910511F4F0910D02F093351203
:1014400020915D04222309F4DDC021E020933912AC
:10145000209338123091E312309334127091FD12C0
:1014600001E010E002C0000F111F7A95E2F700932F
:10147000291221E060910813611101C020E020933E
:101480003312B091E5018330910531F4BD3021F480
:1014900020910D0220933312C0918012C09332121A
:1014A000442319F021E0BC3079F02091A00C2111E7
:1014B00009C020916404211105C02091211222232A
:1014C00009F4A7C020910D022093281285309105C0
:1014D00009F0A2C021E02093311220912012222392
:1014E00009F49DC020910D022093301260913912B1
:1014F00020E4629FB0011124E090381220E8E29EBF
:10150000700111246E297F2920913712622B2091BE
:101510002812722B232F30E0322F2227330F330F64
:10152000330F262B372B6091331270E0762F66270E
:101530007295707F262B372BEC2EF12C60E2E69E05
:10154000F02CEE2411242E293F296091311270E0F5
:1015500070E4679F702D66271124262B372B60912E
:10156000301270E07727669577956627622B732B8C
:10157000000F111F0E7F1170602B712B10E2D19F95
:1015800090011124622B732B2E2F30E0322F222753
:10159000330F622B732B2F2F30E0322F2227330F84
:1015A000330F622B732B70933D1260933C12B0315A
:1015B00008F03EC0EB2FF0E0E052F54F0C944E499E
:1015C0005A0B180B480B4B0B4E0B180B540B570BAD
:1015D000120B3F0B420B450B5A0B5A0B510B510B85
:1015E00090910D028160862B8C2B8E2B822B9795F0
:1015F00099279795892B00CFD0910D020BCFE091C1
:101600000D0213CF2091A11220933912209196122E
:101610001FCF109228125ACF109231125ECF209114
:10162000D81262CF23E030E03093271220932612A5
:101630008230910509F49EC008F041C0009709F47A
:1016400057C08130910509F46BC040913E128091E2
:10165000431290914412DF91CF911F910F91FF900F
:10166000EF90DF90CF90BF90AF909F908F907F9042
:101670006F905F904F903F902F900C945F062CE0FE
:1016800030E0D2CF20E330E0CFCF20EC30E0CCCF41
:1016900020E033E0C9CF20E034E0C6CF20E038E0DE
:1016A000C3CF20E030E3C0CF20E030E8BDCF20E062
:1016B00030E4BACF1092271210922612B9CF85309B
:1016C000910508F4D1C0059709F0BFCF809123128E
:1016D00090912412909344128093431280910F139F
:1016E000882309F4B2CF1092241210922312ADCFA6
:1016F00030916804AA23A9F120910C0240911312A1
:1017000081E090E002C0880F991F3A95E2F730E03F
:1017100002C0220F331F4A95E2F7822793270BC09E
:10172000CC2371F020910B1281E090E002C0880F71
:10173000991F2A95E2F7909344128093431285CF24
:101740002091B712222319F020916804EFCF309135
:101750000A123F70AA2329F020910C024091131223
:10176000D1CF80910D0290E002C0880F991F3A9569
:10177000E2F7E1CFC111D6CF20919A0CB0910912B6
:10178000BF70A1112EC030E040919B0C4F70F0E073
:10179000E0E090E080E050E0812C912C54018394B3
:1017A000EC01C40FD51F7501640104C0CC0CDD1C15
:1017B000EE1CFF1CCA95D2F7EC29FD2901962817CB
:1017C000390774F780910D0291E0892790E002C0FB
:1017D000880F991FBA95E2F7809590958E239F23E5
:1017E000AACF2223A1F140919B0C4F70F0E0E0E0E2
:1017F00090E080E030E050E0812C912C5401839403
:101800002817390784F0EC01C40FD51F7501640156
:1018100004C0CC0CDD1CEE1CFF1CCA95D2F7EC29D1
:10182000FD290196EDCF80910D0220910C0240918F
:10183000131291E09827892F90E002C0880F991F1A
:10184000BA95E2F7809590958E239F2360CF809183
:101850000D0220910C024091131290E002C0880FFB
:10186000991FBA95E2F753CF442311F180912512C5
:101870002091261230912712883038F0309344128C
:101880002093431210922512E0CEBF3051F42575FB
:101890003D7F30934412209343128F5F8093251233
:1018A000D4CE90910C129111F4CF25753D7DF1CFDE
:1018B000552361F180912512883038F08FE79FEF32
:1018C0009093441280934312DDCF9091A40C29ECA5
:1018D00031E0929FF001939FF00D1124E259F14FF6
:1018E00043814150550B21E030E0D90102C0AA0FDD
:1018F000BB1F4A95E2F7AD019481985F02C0220FA9
:10190000331F9A95E2F72A2B352BC3CFAA2309F46C
:10191000B7C08B2F90E000910C124091A40C5C0199
:1019200024E0AA0CBB1C2A95E1F729EC31E0429F88
:10193000F001439FF00D1124AE0EBF1EB0E0A0E0F9
:1019400050E040E030E020E0C12CD12C7601C3947F
:10195000EC01CC0FDD1FCE0FDF1FCD58D14FFC01A6
:10196000E757FE4F1F01C9018A0D9B1D8D54914FF2
:10197000FC011081002309F444C017FF5EC0888178
:101980009981022E02C0969587950A94E2F781709C
:1019900099271F77F1019080911608F03FC0892B9D
:1019A00061F026013701022E04C0440C551C661C50
:1019B000771C0A94D2F7442955292F5F3F4F2031D5
:1019C000310589F65093421240934112B093401270
:1019D000A0933F122091251280910C022830F0F143
:1019E0002091131290E002C0880F991F2A95E2F708
:1019F000A827B9274A2B5B2B5093441240934312DC
:101A000041CF17FD1AC088819981022E02C0969598
:101A100087950A94E2F781709927BCCF892B69F2E8
:101A200026013701022E04C0440C551C661C771C8D
:101A30000A94D2F7A429B529C0CF26013701022E76
:101A400004C0440C551C661C771C0A94D2F74094C1
:101A5000509444215521A421B521AFCF30911312C8
:101A600090E002C0880F991F3A95E2F7482759275E
:101A700050934412409343122F5F20932512E5CDDB
:101A8000C11150CEA0919A0CB0E090919B0C9F7028
:101A9000F0E0E0E050E040E0292F30E0812C912C94
:101AA00054018394CA01820F931F7501640104C01D
:101AB000CC0CDD1CEE1CFF1C8A95D2F7EC29FD290D
:101AC0004F5F5F4FA417B5076CF780910D0291E04F
:101AD000892790E020910A122F7002C0880F991F69
:101AE0002A95E2F779CE10924F0410924E0410928C
:101AF0004D040895645F282F40E085EC94E10C9438
:101B00008F3E809150048823B1F11092500490913F
:101B100010122091A40C30E0809118129923A9F0A2
:101B2000E091101269EC71E0269FA001279F500DF3
:101B3000369F500D11244259514FE40FF52FF11DDE
:101B4000EC5BFE4F60810C947A0D49EC51E0249FD0
:101B5000F001259FF00D349FF00D11249F012259B3
:101B6000314FF901EB53FE4FE081E20FF32FF11DEE
:101B7000EB5BFE4FE7CF0895645F282F85EC94E17F
:101B80000C94853E61EC7DE185EC94E10E945F3C24
:101B900067E271E085EC94E10E94653C6BE271E0E4
:101BA00085EC94E10E94713C6FE271E085EC94E178
:101BB0000C946B3C68EF70E085EC94E10E94773CFC
:101BC0006AEF70E085EC94E10E94773C6CEF70E086
:101BD00085EC94E10E94773C6BEF70E085EC94E13A
:101BE0000C94773C62EF70E185EC94E10E94593CE3
:101BF0006DE771E185EC94E10C94533C60E970E091
:101C000085EC94E10E94773C60E870E085EC94E11B
:101C10000C94773C2091181240E06BE785EC94E13E
:101C20000C94993E8FE090E00E94BC445E9885E061
:101C300090E00E94BC445E9A0895EF92FF920F9349
:101C40001F93CF93DF93C9E7D1E003E811E059EC8C
:101C5000E52EFF24F394209105123091061249914C
:101C6000842F90E002C0369527954A95E2F720FF31
:101C700042C02091A40C30E0E091131244E0880FA0
:101C8000991F4A95E1F72E9DA0012F9D500D3E9D75
:101C9000500D1124840F951F8259914FE80FF92F91
:101CA000F11DEB5BFF4F908197FD9F7780911312A1
:101CB0002E9DF0012F9DF00D3E9DF00D1124E25957
:101CC000F14F258D368D02C0369527958A95E2F71E
:101CD00080E020FF05C0E853FE4F8081880F880F09
:101CE000890F0E94D10682B18F71F8019081892BF2
:101CF00082B90E94120E0F5F1F4FF1E0CE37DF074F
:101D000009F0A9CFDF91CF911F910F91FF90EF9034
:101D100008951F920F920FB60F9211240BB60F92D7
:101D20002F933F934F935F936F937F938F939F93E3
:101D3000AF93BF93EF93FF93109291001092950091
:101D4000109294000E941D0E80910512909106122F
:101D50004091740C5091750C2091780C3091790C55
:101D60002095309582239323842B952B0E94870600
:101D700085E08093B1001092061210920512FF9137
:101D8000EF91BF91AF919F918F917F916F915F91F3
:101D90004F913F912F910F900BBE0F900FBE0F9060
:101DA0001F9018958FE090E00E94BC445F9885E0FA
:101DB00090E00E94BC445F9A08958F929F92AF92E8
:101DC000BF92CF92DF92EF92FF920F931F93CF9328
:101DD000DF938091071290910812C091780CD091F6
:101DE000790CC095D095C823D923AEE7CA2EA1E0BF
:101DF000DA2EB3E8EB2EB1E0FB2E18E8812E11E0CD
:101E0000912E870189ECA82EBB24B394F601419151
:101E10006F01842F90E09E01042E02C03695279515
:101E20000A94E2F720FD04C0D7FF37C04E30A9F571
:101E30006091A40C70E06A9DF0016B9DF00D7A9D9D
:101E4000F00D1124E259F14F258D368DD7FFAEC02C
:101E50004E3009F0ABC0A0911312AE0FBF2FB11DD1
:101E6000AB5CBE4F9C918091131202C036952795B2
:101E70008A95E2F780E020FF05C0E853FE4F80819D
:101E8000880F880F890F0E94D10682B18F719091BF
:101E90008501892B82B90E94D20E0F5F1F4F8016D9
:101EA000910609F0B3CF09E711E05EE7C52E51E0D6
:101EB000D52E69EC862E99249394AA24A394B12C50
:101EC000F80151918F01852F90E09E01052E02C0EF
:101ED000369527950A94E2F720FF54C02091A40C70
:101EE00030E0E091131244E0880F991F4A95E1F722
:101EF000289DB001299D700D389D700D1124860F0D
:101F0000971F8259914FE80FF92FF11DEB5BFF4F9F
:101F1000908197FF12C06091051270910612F50131
:101F200002C0EE0FFF1F5A95E2F7AF01462B572B69
:101F300050930612409305129F7780911312289DAB
:101F4000F001299DF00D389DF00D1124E259F14F5B
:101F5000258D368D02C0369527958A95E2F780E06B
:101F600020FF05C0E853FE4F8081880F880F890F3E
:101F70000E94D10682B18F71F7019081892B82B9BD
:101F80000E94120EFFEFEF1AFF0AC016D10609F0E9
:101F900097CFDF91CF911F910F91FF90EF90DF903E
:101FA000CF90BF90AF909F908F900895E0911312C3
:101FB000F4E0880F991FFA95E1F76A9DA0016B9DE7
:101FC000500D7A9D500D1124840F951F8259914F09
:101FD000E80FF92FF11DEB5BFF4F908180911312F9
:101FE00002C0369527958A95E2F780E020FF06C06B
:101FF0004A5C5F4EFA018081880F880F890F0E942A
:10200000D10682B18F71F801908143CFE82FF0E0C3
:10201000EC5BFE4F6083EEEFE80FEE3008F060C03F
:10202000862FF0E0EA5EFF4E0C944E4943104A10B2
:10203000541070106210691024102E1035103C10CE
:10204000701070105B105B100E94D10682B18F710E
:1020500090918501892B82B90C94120E0E94D106B1
:1020600082B18F7190918401F5CF0E94D10682B127
:102070008F7190918301EECF0E94D10682B18F7152
:1020800090918601E7CF0E94D10682B18F71909125
:102090008701E0CF0E94D10682B18F7190918401B7
:1020A000892B82B90C94D20E0E94D10682B18F7115
:1020B00090918301F5CF0E94D10682B18F719091EA
:1020C0008501EECF0E94D10682B18F719091870178
:1020D000E7CF0E94D10682B18F7190918601E0CF47
:1020E0000895EF92FF920F931F93CF93E82EF12C58
:1020F0008701035C1B4FF8019081911139C0209139
:10210000780C3091790C082E02C0369527950A94E8
:10211000E2F720FD2DC0C82F0E940610CF3071F5C8
:102120008091720C9091730C8D7D80620E94870665
:102130008091B20080932904809120048823A9F023
:10214000F701EC5CFE4F208181E090E002C0880F37
:10215000991F2A95E2F72091210430912204822BC5
:10216000932B909344128093431281E0F801808373
:10217000CF911F910F91FF90EF900895CE3031F4E1
:102180008091720C9091730C8262D0CF2091720C6E
:102190003091730C81E090E00E2C02C0880F991FE3
:1021A0000A94E2F7822B932B0E9487068091B2005B
:1021B000F701EC5DFB4F8083BFCFE82FF0E0E35CDD
:1021C000FB4F108220911C0430911D04082E02C088
:1021D000369527950A94E2F720FF03C060E00C943F
:1021E00006100895E62F642F9091191241113FC0F7
:1021F000891382C0E252EB3108F07EC0F0E0ED5F5F
:10220000FE4E0C944E4929111E111E117C112111F4
:102210002B11211123112D117C117C1125112F114E
:10222000251125113111271133117C117C117C11DD
:102230007C117C117C117C117C11351188E00C948F
:10224000DD1089E0FCCF8AE0FACF8BE0F8CF82E0A6
:10225000F6CF83E0F4CF84E0F2CF8EE0F0CF8FE0D2
:10226000EECF87E0ECCF86E0EACF129A089589138B
:1022700043C0E252EB3108F03FC0F0E0EE5BFE4EAF
:102280000C944E4968115D115D117C1160116A1149
:10229000601162116C117C117C1164116E1164115A
:1022A00064117211661170117C117C117C117C110A
:1022B0007C117C117C117C11741188E00C947110DC
:1022C00089E0FCCF8AE0FACF8BE0F8CF82E0F6CF4E
:1022D00083E0F4CF84E0F2CF8EE0F0CF8FE0EECF5A
:1022E00086E0ECCF87E0EACF8091780C80FD04C0D7
:1022F000129881E0809334040895909119129813F4
:1023000040C062526B3108F03CC0E62FF0E0E55768
:10231000FE4E0C944E49B111A611A611C111A9117E
:10232000B311A911AB11B511C111C111AD11B71183
:10233000AD11AD11BB11AF11B911C111C111C11155
:10234000C111C111C111C111C111BD1188E00C949D
:10235000DD1089E0FCCF8AE0FACF8BE0F8CF82E095
:10236000F6CF83E0F4CF84E0F2CF8EE0F0CF8FE0C1
:10237000EECF86E0ECCF87E0EACF80911C0480FDB1
:10238000129A0895CF92DF92EF92FF920F931F93CC
:10239000CF93DF934091A40C89EC91E0489F90018A
:1023A000499F300D1124F901E259F14F81A192A109
:1023B00043A154A1842B952B908B87878091E601B4
:1023C0009091E701049709F458C01091E50100913C
:1023D0009E0190E080E0DF019196B396C12CD12C54
:1023E0007601C3944D915C911197082E02C05695C9
:1023F00047950A94E2F740FF14C01E3091F4B701EC
:10240000A601082E04C0440F551F661F771F0A94AB
:10241000D2F74095509560817181462357235183AF
:10242000408340815181082E02C0569547950A94F9
:10243000E2F740FF1DC01F30D9F4B701A601082EF6
:1024400004C0440F551F661F771F0A94D2F74095AA
:1024500050956D917C9111974623572311965C936B
:102460004E93AC01420F531F4D56504FEA01088363
:1024700001968031910509F0B5CFDF91CF911F9181
:102480000F91FF90EF90DF90CF9008952091A40CD2
:1024900030E0EAEAFCE089EC91E0289FA001299F66
:1024A000500D389F500D11244259514F90E080E05B
:1024B000DA01A80FB91F15966D917C916193719304
:1024C000029680329105A1F789EC91E0289FF001F6
:1024D000299FF00D389FF00D1124E259F14F8081B2
:1024E0008093A50C81818093A60C83818093A80C96
:1024F00084818093A90CDF01AB53BE4F6C91609334
:102500006A0EE853FE4F808180936D0EAAEEBDE007
:1025100090E080E0861748F4FC01EB5BFE4FE40F8F
:10252000F51F70817D930196F5CF49EC51E0249F12
:10253000C001259F900D349F900D11248259914F19
:1025400025EA3CE050E040E0BA016B5B7F4FF901C7
:10255000E60FF71F680F791FDB016C9160834F5FF7
:102560005F4F4031510581F74096205F3F4FBDE0FE
:10257000253A3B0739F708952091A40C30E0EAEAA8
:10258000FCE089EC91E0289FA001299F500D389F25
:10259000500D11244259514F90E080E061917191AA
:1025A000DA01A80FB91F16967C936E9315970296C1
:1025B0008032910599F789EC91E0289FF001299FDD
:1025C000F00D389FF00D1124E259F14F8091A50CC8
:1025D00080838091A60C81838091A80C8383809155
:1025E000A90C848360916A0EDF01AB53BE4F6C93DC
:1025F000E853FE4F80916D0E8083AAEEBDE090E01F
:1026000080E0861748F47D91FC01EB5BFE4FE40F00
:10261000F51F70830196F5CF45EA5CE069EC71E047
:10262000269FC001279F900D369F900D112482593F
:10263000914F30E020E0B9016B5B7F4FFC01E60F6A
:10264000F71F640F751FDB016C9160832F5F3F4F95
:102650002031310581F7405F5F4F4096BDE0453A3C
:102660005B0739F708952091A40C30E080919D0C10
:1026700081111AC049EC51E0249FC001259F900DA3
:10268000349F900D11248259914FFC01E953FE4F64
:10269000408140939A0C8A539E4F40910A12FC014C
:1026A0008081481B40939B0C70919E016091A0011A
:1026B00050919F0189EC91E0289FF001299FF00D36
:1026C000389FF00D1124ED58F04F90E080E040E588
:1026D000A0A1A11101C070A3DF01A055B1096C93A5
:1026E00050975C934193DF01A15CB1094C934787FC
:1026F00001968031910561F789EC91E0289FF00106
:10270000299FF00D389FF00D1124E259F14F81817E
:10271000803191F018F48C3049F00895883119F027
:10272000803241F008951092FD12089581E0809367
:10273000FD12089582E0FBCF83E0F9CF8F929F9244
:10274000AF92BF92CF92DF92EF92FF920F931F93BF
:10275000CF93DF932091A40C89EC91E0289FA001F6
:10276000299F500D11244259514FFA0130E020E0C9
:1027700001E010E0812C912C5401839416A215A243
:10278000E801022E02C0CC0FDD1F0A94E2F790E0B0
:1027900080E0BC01660F771F640F751FDB01159683
:1027A0006D917C916C237D23672B81F065A176A1CF
:1027B00075016401082E04C0CC0CDD1CEE1CFF1C4E
:1027C0000A94D2F76C297D2976A365A301968031FE
:1027D0009105F9F62F5F3F4F32962031310571F6A2
:1027E000DF91CF911F910F91FF90EF90DF90CF90ED
:1027F000BF90AF909F908F900895EF92FF920F93AC
:102800001F93CF93DF9381E08093A30C2091A40CBE
:1028100030E080915112811165C089EC91E0289FD0
:10282000B001299F700D389F700D1124DB01A25952
:10283000B14FAD0187E39EEF289F7001299FF00CF7
:10284000389FF00C112490E080E01596ED91FC91FA
:1028500016979F0136952795E0FF3FC03068169682
:102860003C932E931597FA01EE0DFF1DE60FF71F0F
:102870009C0127573E4FE90128818F010B5B1F4FB9
:10288000E8013881EC5AFF4F231728F49C012756A2
:102890003E4FE9012881208330E020E02F5F3F4F49
:1028A000FA01E20FF31F8F010B5B1F4FE801188144
:1028B000EC5BFF4F10832F30310581F701961296A4
:1028C000405F5F4F8031910509F0BFCFDF91CF911D
:1028D0001F910F91FF90EF90089516963C932E93C1
:1028E0001597DACF8091E50190E0DC01AA0FBB1FBC
:1028F00049EC51E0249FB001259F700D349F700D6D
:102900001124A60FB71FA259B14F1596ED91FC9156
:102910001697AF0156954795E0FF45C0506816964B
:102920005C934E931597FC01E757FE4F4081FC01E5
:1029300054E0EE0FFF1F5A95E1F7E60FF71FE2593B
:10294000F14FDF01AB5BBF4F5C91EC5AFF4F451776
:1029500020F4DC01A756BE4F4C91408369EC71E036
:10296000269FA001279F500D369F500D112424E073
:10297000880F991F2A95E1F7840F951F50E040E0DA
:102980004F5F5F4F9A01280F391F2259314FF901CC
:10299000EB5BFF4F60812C5B3F4FF90160834F3051
:1029A000510571F793CF16965C934E931597D6CF3A
:1029B000EF92FF920F931F93CF93DF9381E0809369
:1029C000A30C2091A40C30E080915112811165C0BC
:1029D00089EC91E0289FB001299F700D389F700D00
:1029E0001124DB01A259B14FAD0187E39EEF289F6F
:1029F0007001299FF00C389FF00C112490E080E0CA
:102A00001596ED91FC9116979F01220F331FF7FF4A
:102A10003FC0216016963C932E931597FA01EE0D58
:102A2000FF1DE60FF71F9C0127573E4FE901288144
:102A30008F010C5A1F4FE8013881EB5BFF4F2317C2
:102A400028F49C0127563E4FE901288120832FE07E
:102A500030E021503109FA01E20FF31F8F010B5BC7
:102A60001F4FE8011881EA5BFF4F108321153105E4
:102A700081F701961296405F5F4F8031910509F012
:102A8000BFCFDF91CF911F910F91FF90EF900895ED
:102A900016963C932E931597DACF8091E50190E03E
:102AA000DC01AA0FBB1F49EC51E0249FB001259F18
:102AB000700D349F700D1124A60FB71FA259B14F8E
:102AC0001596ED91FC911697AF01440F551FF7FF36
:102AD00045C0416016965C934E931597FC01E757ED
:102AE000FE4F4081FC0154E0EE0FFF1F5A95E1F7C5
:102AF000E60FF71FE259F14FDF01AC5ABF4F5C916F
:102B0000EB5BFF4F451720F4DC01A756BE4F4C91FD
:102B1000408344E0880F991F4A95E1F769EC71E022
:102B2000269FA001279F500D369F500D1124840F22
:102B3000951F4FE050E0415051099A01280F391F6D
:102B40002259314FF901EB5BFF4F60812A5B3F4F08
:102B5000F90160834115510571F793CF16965C9387
:102B60004E931597D6CFAF92BF92CF92DF92EF924E
:102B7000FF920F931F93CF93DF9380910F128823BF
:102B800049F080915D04882329F010925D0481E072
:102B9000809378018091B8128823E9F08091E50153
:102BA0008D30C9F48091E6019091E701039799F483
:102BB00080915D04C1E08C2780935D04882341F0FF
:102BC0000E94810DC093E80110920F12C0931E1352
:102BD00081E08093780180915D04882309F42BC102
:102BE0008091FA12882359F0809188018F5F883094
:102BF00008F02CC18093880181E080937801809156
:102C0000AD12882359F0809188018150883008F0F6
:102C10001FC18093880181E0809378018091A21286
:102C2000882319F180915C048150833608F013C128
:102C300080935C044091A40CE0915C0429EC31E0A9
:102C4000429FC001439F900D11248259914FE80F7C
:102C5000F92FF11DEB5BFE4F40E56081809118126A
:102C60000E94BC0D81E0809378018091A31288239B
:102C7000B9F04091A40CE0915C0429EC31E0429F52
:102C8000C001439F900D11248259914FE80FF92FF5
:102C9000F11DEB5BFE4F6081809118120E947A0D4E
:102CA00080919712882319F180915C048F5F83369D
:102CB00008F0D4C080935C044091A40CE0915C04C3
:102CC00029EC31E0429FC001439F900D11248259AD
:102CD000914FE80FF92FF11DEB5BFE4F40E560814E
:102CE000809118120E94BC0D81E080937801809140
:102CF00098128823B9F04091A40CE0915C0429EC6F
:102D000031E0429FC001439F900D11248259914FA1
:102D1000E80FF92FF11DEB5BFE4F608180911812D7
:102D20000E947A0D80915512882329F010925C043C
:102D300081E0809378018091E801882309F47BC0C9
:102D4000CEE2D3E110E000E08CE0C82E99ECE92E51
:102D5000FF24F394BB24B39423E6A22ED02E8091BB
:102D60004D1290914E12002E02C0969587950A94AE
:102D7000E2F7282F217028833981231709F452C0E4
:102D80002A8121113DC080FF3BC080918801602FC6
:102D90008C9D600D11242091A40CE0915C042E9D6B
:102DA000C0012F9D900D11248259914FE80FF92FEA
:102DB000F11DEB5BFE4F608340E5809118120E948D
:102DC000BC0D80915C048F5F80935C04B092A30C77
:102DD000843610F0A0925C048091A40C90E02091C5
:102DE0005C0421508E9DF0018F9DF00D9E9DF00D95
:102DF0001124ED5CFF4E243698F52083B0927801C3
:102E00008A81882369F0888181110AC080918801B4
:102E10006D2D8C9D600D1124809118120E947A0DE9
:102E200088818A83888189830F5F1F4F2B960031A9
:102E3000110509F093CFDF91CF911F910F91FF9072
:102E4000EF90DF90CF90BF90AF90089587E0D2CE03
:102E500010928801E0CE10925C04ECCE83E62ACF7B
:102E60001082CCCFEFE6F0E080818D7F80831092DE
:102E700089001092880010928100109280000895BD
:102E800020911A1230911B1240E6429FC001439FCD
:102E9000900D11246CE370E00E94E5489B0150E026
:102EA00040E060E874E88EE190E00E942F493093A2
:102EB0008900209388000895CF93DF938091E601E5
:102EC0009091E7012091E5012C3091F58330910537
:102ED00079F52091A40C89EC91E0289FF001299FBD
:102EE000F00D1124EA5CFF4E808161E070E090E01B
:102EF0000E94420799278E30910514F08DE090E0F2
:102F00004091A40C29EC31E0429FF001439FF00D69
:102F10001124EA5CFF4E80832091F9032817E1F029
:102F20008093F90381E08093A30C8093780114C00F
:102F3000019709F0D9C08091D8128111D5C0809134
:102F400020128111D1C080915104813009F44CC00C
:102F500030F0823009F473C0DF91CF9108958091F1
:102F6000690490916A04209151126AE070E0211185
:102F700002C061E070E00E94420790936A0480936F
:102F800069048091690490916A04883E23E0920765
:102F900010F087EE93E090936A0480936904209187
:102FA000F7033091F80328173907B1F29093F8032B
:102FB0008093F7036091650442E054E0649F9001C0
:102FC000659F300D112423593B4F820F931FFC0145
:102FD00082818093091290910A12891719F081E079
:102FE0008093A20C81E0A1CF8091091290E0209102
:102FF000511260E170E0211102C061E070E00E94B6
:103000004207809309128091091290E0803891055F
:1030100014F08FE790E0282F809309124091F50378
:103020005091F6038417950709F496CF9093F60311
:103030008093F50380910A122813D1CFD3CF8091CA
:103040006504C2E0D4E08C9FF0018D9FF00D112447
:10305000E359FB4F80819181209151126AE070E029
:10306000211102C061E070E00E94420720916504D6
:103070002C9FF0012D9FF00D1124E359FB4F9183FC
:1030800080832091650430E082E094E0289FF00185
:10309000299FF00D389FF00D1124E359FB4F8081DB
:1030A0009181883EF3E09F0710F087EE93E042E0C5
:1030B00054E0249FF001259FF00D349FF00D112462
:1030C000E359FB4F918380832091F3033091F40304
:1030D0002817390709F440CF9093F4038093F30342
:1030E00081E08093640421CF80915D04882309F4FA
:1030F00004C180915104813009F449C010F182303B
:1031000009F4A9C0833009F027CF8091880161E0DC
:1031100070E090E00E94420799278830910514F0F2
:1031200087E090E0809388012091EB033091EC03DD
:103130008217930709F410CF9093EC038093EB036D
:1031400051CF80915C0490E0209151126AE070E0D0
:10315000211102C061E070E00E94420780935C048C
:1031600080915C0490E08436910514F083E690E051
:1031700080935C042091F1033091F203821793074E
:1031800009F4EACE9093F2038093F1032BCF2091C0
:10319000A40CE0915C04C9ECD1E02C9FC0012D9FF0
:1031A000900D11248259914FE80FF92FF11DEB5B1F
:1031B000FE4F808190E0209151126CE070E021116F
:1031C00002C061E070E00E9442079091A40CE0917F
:1031D0005C049C9F90019D9F300D11242259314F1A
:1031E000E20FF32FF11DEB5BFE4F80834091A40CA7
:1031F00050E080915C0490E029EC31E0429FF001C6
:10320000439FF00D529FF00D1124E80FF91FED546C
:10321000F04F208130E02038310514F02FE730E006
:1032200069EC71E0469FF001479FF00D569FF00D4D
:103230001124E80FF91FED54F04F20838091EF0324
:103240009091F0032817390709F486CE3093F003E4
:103250002093EF03C7CE8091A40CC9ECD1E08C9FE2
:10326000F0018D9FF00D1124ED5CFF4E808190E008
:10327000209151126AE070E0211102C061E070E01B
:103280000E9442079091A40C9C9FF0019D9FF00D1D
:103290001124ED5CFF4E80832091A40C30E089EC7A
:1032A00091E0289FF001299FF00D389FF00D112427
:1032B000ED5CFF4E808190E08436910514F083E64A
:1032C00090E049EC51E0249FF001259FF00D349FE0
:1032D000F00D1124ED5CFF4E80832091ED033091C1
:1032E000EE038217930709F437CE9093EE03809391
:1032F000ED0381E08093A00C18CE809120128823EA
:1033000009F4CBC080911F12813009F092C08091E6
:103310005104813009F448C058F1823009F468C082
:10332000833009F019CE8091191261E070E090E0CD
:103330000E94420761E070E0882339F0BC017727E2
:103340006131710514F060E170E0609319128091B1
:10335000E4039091E5036817790709F4FDCD7093B4
:10336000E5036093E40385EC94E10E94503C3EC089
:103370008091161261E070E090E00E944207992768
:103380008330910514F082E090E080931612209132
:10339000EA03281709F4E0CD8093EA0381E08093E3
:1033A000171280932112C1CD61E070E080911C1250
:1033B00090911D120E9442078B3F910510F08AEFF9
:1033C00090E08E31910510F48EE190E090931D1203
:1033D00080931C122091E8033091E9038217930730
:1033E00009F4BACD9093E9038093E80381E0D9CF43
:1033F0008091181261E070E090E00E9442078823FB
:10340000A9F099278131910514F080E190E0809333
:1034100018122091E6033091E7038217930709F40D
:103420009BCD9093E7038093E603E0CF81E090E0AB
:10343000EECF823009F090CD809151048823C1F005
:10344000813009F089CD8091221261E070E090E036
:103450000E94420721E0892B09F420E020932212E8
:103460008091E203281709F477CD2093E203BECFC1
:103470008091151261E070E090E00E94420721E027
:10348000892B09F420E0209315128091E30328177B
:1034900009F462CD2093E303A9CF61E070E080914D
:1034A0001A1290911B120E9442078F31910578F1F8
:1034B00090931B1280931A1280911A1290911B12F2
:1034C0008A3F910530F08AEF90E090931B12809331
:1034D0001A1280911A1290911B122091E0033091E0
:1034E000E1038217930709F437CD9093E1038093AA
:1034F000E0030E9440178091E6019091E701039755
:1035000009F070CD8091D81281116CCD25CD8EE15E
:1035100090E0CECFE1E8F0E0108210928000808150
:103520008A6080830E944017EFE6F0E0808182602D
:103530008083089582E08093B0001092B1001092D1
:10354000B20099EF9093B3008093700008951092A9
:10355000B00087E08093B1001092700008958091D0
:103560001612813061F018F0823089F008950E94BF
:103570009A1A0E94DA0D0E94FE0D0C948A1A0E947B
:1035800032170E949A1A0E94FE0D0C94C20D0E94DE
:1035900032170E94A71A0E94DA0D0E94F20D1092B3
:1035A00044121092431210923D1210923C1210924B
:1035B0003E12089510929000109292001092910085
:1035C000F89410929500109294008091BB01909114
:1035D000BC019093990080939800789482E0809346
:1035E0007100089520919800309199004091A40CA9
:1035F00089EC91E0489FF001499FF00D1124E259B8
:10360000F14FE481F0E0EE0FFF1FE754FE4F8081A1
:1036100091812817390721F09093990080939800A1
:103620000895CF93DF9380913B1221E0822780930E
:103630003B128091141290E060E370E00E94F94820
:10364000892B29F480910D02822780930D028091AD
:1036500014129091A40C29EC31E0929FF001939FF9
:10366000F00D1124E259F14F618166950E94D9480D
:10367000911102C010920C0280911412837039F4DF
:103680008091C80085FFFCCF88EF8093CE008091A9
:103690001612811109C080911412837009F0F6C1CD
:1036A000119A81E080933B0480910F12882309F4E2
:1036B000DFC1809114124091A40C50E029EC31E05C
:1036C000429FF001439FF00D529FF00D1124E259EB
:1036D000F14F3181632F0E94D948832F869598132B
:1036E00005C0809112128F5F8093121289EC91E0D5
:1036F000489FF001499FF00D589FF00D1124E259A9
:10370000F14F208180911212281710F4109212129A
:10371000109208121092071280911412632F0E94C7
:10372000D948911103C081E0809311128091141245
:10373000E091001269EC71E0469FD001479FB00D07
:10374000569FB00D1124A259B14F13964C91415080
:10375000550B440F551FE40FF52FF11DEE0FFF1F02
:10376000E753FE4F40815181840F952F911D632FA8
:1037700070E00E94F948892B09F040C18091111234
:10378000882309F43BC1109211128091001291E03C
:1037900089278093001290930C0280911E12813031
:1037A00009F49EC108F48CC1823009F479C18330D8
:1037B00009F49EC12091A40C89EC91E0289FA001FE
:1037C000299F500D112430E020E0A0911312609148
:1037D000071270910812F901EE0FFF1FE40FF51F99
:1037E000E259F14F8581968102C096958795AA95F9
:1037F000E2F781709927022E02C0880F991F0A9460
:10380000E2F7862B972B90930812809307122F5F75
:103810003F4F20313105C9F6409113122091071214
:1038200030910812809101129091021202C0969577
:1038300087954A95E2F743E0880F991F4A95E1F78B
:1038400088709927822B932B9093081280930712EC
:103850000E94F21A8091071290910812892B09F4A4
:1038600062C00E94DD0E8091780C9091790C2091BD
:1038700007123091081236FF02C096FD45C1209113
:1038800007123091081237FD42C19C014091A40CEF
:1038900050E0A091131269EC71E0469FF001479F40
:1038A000F00D569FF00D1124E259F14F61A172A164
:1038B00002C076956795AA95E2F760FF02C096FF71
:1038C0002AC160911312A9ECB1E04A9FF0014B9F0D
:1038D000F00D5A9FF00D1124E259F14F43A154A16C
:1038E00002C0569547956A95E2F740FD1BC140918D
:1038F0000712509108128091740C9091750C2095CC
:10390000309524233523822B932B0E94870685E054
:103910008093B1008091051290910612892B19F0C5
:103920008BE080939100209113123091A40C89ECCC
:1039300091E0389FF001399FF00D1124E259F14FC9
:103940008581968102C0969587952A95E2F780FF3A
:1039500004C0129881E08093340420911312809166
:10396000A40CC9ECD1E08C9FF0018D9FF00D1124C7
:10397000E259F14F878D90A102C0969587952A95BF
:10398000E2F780FF20C00E94810DE091101220918B
:10399000A40C2C9FC0012D9F900D11248259914F92
:1039A000E80FF92FF11DEB5BFE4F40E56081809140
:1039B00018120E94BC0D81E0809350048091101277
:1039C0008F5F80931012809110129091A40C29ECBB
:1039D00031E0929FF001939FF00D1124ED5CFF4EBA
:1039E0009081981710F4109210128091E901909133
:1039F000EA0101969093EA018093E9018091E9013F
:103A00009091EA014091A40C29EC31E0429FF00131
:103A1000439FF00D1124E259F14F20812817190618
:103A20003CF5C1E0C0930312C09362041092EA0116
:103A30001092E9018091A10C8823D1F08091E601D8
:103A40009091E7010297A1F41092A10C83E080937A
:103A5000880110925C040E94810D8091A40C8C2737
:103A60008093A40C0E9433130E94C2110E949E13E3
:103A7000809114128F5F80931412809114128036FB
:103A800010F010921412DF91CF91089580911412CA
:103A90008370823009F008CE119810923B0404CE56
:103AA0009091131280910412291302C081110FC04A
:103AB00090911312992371F080910412882381F060
:103AC0008091E9019091EA018093131273CE1092D4
:103AD0000412F2CF8111F0CF81E080930412ECCF79
:103AE0008091E9019091EA01281B2093131262CE84
:103AF00020E130E040E050E060E070E0CB010E9467
:103B0000AA486093131256CE9C012062BFCE9C013E
:103B100097FFBCCEFACF82E090E09093750C809333
:103B2000740CE5CE97FDE3CE1092750C1092740CD8
:103B3000DECE1F920F920FB60F9211240BB60F928A
:103B40002F933F934F935F936F937F938F939F93A5
:103B5000AF93BF93EF93FF930E94111BFF91EF91DF
:103B6000BF91AF919F918F917F916F915F914F9195
:103B70003F912F910F900BBE0F900FBE0F901F9093
:103B80001895119A0E94111B0E94111B0E94111B73
:103B90000E94111B11980895CF92EF920F93EAE5BE
:103BA000F4E080E580831182E8E5F4E0808311820F
:103BB00087E1C82E96E1E92E05E124E143E162E1C7
:103BC00084E094E00E94BA430F91EF90CF90089563
:103BD000CF92DF92EF92FF926B017C0160E5C114FE
:103BE000D10481E0E806F10408F064E58AEF96E18B
:103BF0000E94294299278F2D7E2D6D2D8AEF96E107
:103C00000E94B3416C2D8AEF96E1FF90EF90DF9018
:103C1000CF900C94B3412F923F924F925F926F924C
:103C20007F928F929F92AF92BF92CF92DF92EF924C
:103C3000FF921F93CF93DF9300D000D0CDB7DEB7B4
:103C4000182F282F30E0A0ECB1E00E9457492B013B
:103C50003C010E94E81DF12CE12C2091A40CF701FD
:103C6000EE0FFF1F49EC51E0249FC001259F900DEE
:103C70001124E80FF91FE259F14F6581D6808AEFD0
:103C800096E10E94B3416D2D8AEF96E10E94B34107
:103C90005FEFE51AF50A80E1E816F104F1F680918C
:103CA000A40CA9ECB1E08A9FF0018B9FF00D1124C8
:103CB000E259F14F60818AEF96E10E94B341809111
:103CC000A40C29EC31E0829FF001839FF00D1124B8
:103CD000E259F14F61818AEF96E10E94B3418091F0
:103CE000A40C49EC51E0849FF001859FF00D112454
:103CF000E259F14F63818AEF96E10E94B3418091CE
:103D0000A40CA9ECB1E08A9FF0018B9FF00D112467
:103D1000E259F14F64818AEF96E10E94B3418091AC
:103D2000A40C29EC31E0829FF001839FF00D112457
:103D3000ED5CFF4E60818AEF96E10E94B341809175
:103D4000A40C49EC51E0849FF001859FF00D1124F3
:103D5000EC5CFF4E60818AEF96E10E94B341809156
:103D6000A40CA9ECB1E08A9FF0018B9FF00D112407
:103D7000EB5CFF4E60818AEF96E10E94B341809137
:103D8000A40C29EC31E0829FF001839FF00D1124F7
:103D9000EA5CFF4E60818AEF96E10E94B34148E100
:103DA00050E05A83498360E08AEF96E10E94B34174
:103DB00089819A8101979A838983892BA1F78AEF58
:103DC00096E10E94464265E070E080E090E00E944B
:103DD0008344212F30E0A7E0B0E00E9457496B01F7
:103DE0007C01812C912C5401A3019201205C3F4F56
:103DF0004F4F5F4F29833A834B835C8385EC94E17B
:103E00000E944E4169817A818B819C81680D791D68
:103E10008A1D9B1D0E94E81D2401350110E480913C
:103E2000A40C49EC51E0849FF001859FF00D112412
:103E3000E259F14FE40DF51DEB5BFE4F60818AEF17
:103E400096E10E94B34111505FEF451A550A650A89
:103E5000750A1111E4CF8AEF96E10E94464265E0AF
:103E600070E080E090E00E94834480E4880E911C22
:103E7000A11CB11C90E889169104A104B10409F0B9
:103E8000BDCFA3E0CA0ED11CE11CF11C1601270115
:103E900096E0220C331C441C551C9A95D1F7F12C4A
:103EA000E12C85EC94E10E944E41C201B1010E94D7
:103EB000E81D470114E0B12CA12C340184E0660C0C
:103EC000771C8A95E1F78091A40C29EC31E0829F60
:103ED000F001839FF00D1124E60DF71DEA0DFB1D87
:103EE000ED54F14F60818AEF96E10E94B3413FEFBC
:103EF000A31AB30A40E1A416B10429F711505FEFE9
:103F0000851A950A1111D7CF8AEF96E10E94464291
:103F100065E070E080E090E00E94834480E4280E39
:103F2000311C411C511C94E0E90EF11CA0E1EA1681
:103F3000F10409F0B6CF0F900F900F900F90DF9122
:103F4000CF911F91FF90EF90DF90CF90BF90AF90F7
:103F50009F908F907F906F905F904F903F902F90A9
:103F600008954F925F926F927F928F929F92AF923D
:103F7000BF92CF92DF92EF92FF921F93CF93DF9386
:103F80009091650422E034E0929FF001939FF00D40
:103F90001124E359FB4F20819181DF01BC5F2C93F9
:103FA000EF5FFB4F908390E0B0E0A0E06C017D01FB
:103FB0008AE0CC0CDD1CEE1CFF1C8A95D1F7812C0D
:103FC000912C540180EED80EE11CF11CC2E0D4E02B
:103FD000C701B601680D791D8A1D9B1D0E94E81D51
:103FE0002401350110E4809165048C9FF0018D9FC0
:103FF000F00D1124E359FB4FE40DF51D62818AEFAA
:1040000096E10E94B34111508FEF481A580A680A8E
:10401000780A1111E8CF8AEF96E10E94464265E0E6
:1040200070E080E090E00E94834480E4880E911C60
:10403000A11CB11C811484E09806A104B10441F6CE
:10404000DF91CF911F91FF90EF90DF90CF90BF90C5
:10405000AF909F908F907F906F905F904F9008955A
:10406000CF93DF9360E070E281E090E00E94E81D72
:10407000C5E1D2E169818AEF96E10E94B3416F8187
:104080008AEF96E10E94B3416B818AEF96E10E942C
:10409000B3416C818AEF96E10E94B34168818AEF57
:1040A00096E10E94B3416D858AEF96E10E94B3418B
:1040B0008AEF96E10E94464265E070E080E090E081
:1040C000DF91CF910C94834480911712882321F0C3
:1040D0000E94AF1A1092171280912112882351F07A
:1040E0008091C312882331F00E9430201092211257
:1040F0000E94180980912012811102C01092211291
:104100000895BF92CF92DF92EF92FF920F931F9389
:10411000CF93DF93B62E282F30E0A0ECB1E00E94C1
:104120005749D0E0C0E00B2D10E06B017C0120EC82
:10413000C20E21E0D21EE11CF11C0C171D07F4F089
:104140006B5D7F4F8F4F9F4F0E94E81D6C2F8AEF52
:1041500096E10E94B3416B2D8AEF96E10E94B34134
:104160008AEF96E10E94464265E070E080E090E0D0
:104170000E9483442196C701B601D7CFDF91CF912A
:104180001F910F91FF90EF90DF90CF90BF90089517
:10419000CF92DF92EF92FF920F931F93CF93DF9313
:1041A000062F282F30E0A0ECB1E00E945749D0E064
:1041B000C0E010E06B017C0120ECC20E21E0D21EB9
:1041C000E11CF11C0C171D07F4F06B5D7F4F8F4F46
:1041D0009F4F0E94E81D60E08AEF96E10E94B34184
:1041E00060E08AEF96E10E94B3418AEF96E10E9477
:1041F000464265E070E080E090E00E9483442196B2
:10420000C701B601D7CFDF91CF911F910F91FF90DA
:10421000EF90DF90CF9008953F924F925F926F9210
:104220007F928F929F92AF92BF92CF92DF92EF9246
:10423000FF920F931F93CF93DF9340ECC42ED12CAA
:10424000E12CF12C10E0412C512C32014394C70198
:10425000B601605C7109810991090E94E81DC0E105
:1042600060E08AEF96E10E94B34160E08AEF96E158
:104270000E94B341C150A1F76FE08AEF96E10E941E
:10428000B34168E18AEF96E10E94B34161E08AEFB1
:1042900096E10E94B34160E08AEF96E10E94B3414B
:1042A00060E08AEF96E10E94B34160E08AEF96E118
:1042B0000E94B34160E08AEF96E10E94B34160E062
:1042C0008AEF96E10E94B3418AEF96E10E9446424E
:1042D00065E070E080E090E00E9483444601570171
:1042E00020E8821A9108A108B108C2E0D0E0C50117
:1042F000B4010E94E81D00E460E08AEF96E10E94AC
:10430000B3410150C9F78AEF96E10E94464265E049
:1043100070E080E090E00E94834430E4830E911CC2
:10432000A11CB11C219709F0DBC046015701C4E074
:10433000D0E0C501B4010E94E81D04E030E1332E55
:1043400060E08AEF96E10E94B3413A943110F8CFD1
:104350000150A1F78AEF96E10E94464265E070E0C5
:1043600080E090E00E948344219740E4840E911CF9
:10437000A11CB11C2097E9F6812F8695869586951C
:10438000A301920104C0220F331F441F551F8A95B9
:10439000D2F7C9012091FC033091FD03822B932BAE
:1043A0009093FD038093FC0340E070E060E00E9486
:1043B0005F061F5F30ECC30E31E0D31EE11CF11C21
:1043C00040ECC41640EED406E104F10409F03FCFFE
:1043D000D0E0C0E0C12C90EED92EE12CF12C412C84
:1043E000512C320143944601570110E000E0C50111
:1043F000B4010E94E81D80E4382E60E08AEF96E167
:104400000E94B3413A943110F8CF8AEF96E10E94AE
:10441000464265E070E080E090E00E9483440F5FD8
:104420001F4F50E4850E911CA11CB11C00311105D9
:10443000F1F6D301C2010C2E04C0880F991FAA1FE8
:10444000BB1F0A94D2F72091FA033091FB03822B11
:10445000932B9093FB038093FA0340E070E060E0BD
:104460000E945F06219634E0D30EE11CF11CC0319E
:10447000D10509F0B8CF60E070E281E090E00E94E1
:10448000E81D60E08AEF96E10E94B34168E78AEF99
:1044900096E10E94B34161E08AEF96E10E94B34148
:1044A00061E08AEF96E10E94B3418AEF96E10E94B3
:1044B000464265E070E080E090E0DF91CF911F918F
:1044C0000F91FF90EF90DF90CF90BF90AF909F90B3
:1044D0008F907F906F905F904F903F900C948344AB
:1044E000C1E0D0E004CF4F925F926F927F928F92A3
:1044F0009F92AF92BF92CF92DF92EF92FF920F9373
:104500001F93CF93DF9300D000D0CDB7DEB7082F35
:10451000282F30E0A0ECB1E00E9457492B013C016C
:104520000E94E81D8AEF96E10E94464240E450E076
:1045300060E570E08AEF96E10E942642D12CC12C02
:1045400011E08AEF96E10E949041B82E8AEF96E141
:104550000E9490419091A40C9127F601EE0FFF1F4D
:1045600049EC51E0949F9001959F300D1124E20F8A
:10457000F31FE259F14FF82EE12CC7018B299683E6
:1045800085835FEFC51AD50A80E1C816D104C9F644
:104590008AEF96E10E9490419091A40C9127A9EC9A
:1045A000B1E09A9FF0019B9FF00D1124E259F14F69
:1045B00080838AEF96E10E9490419091A40C91270C
:1045C00029EC31E0929FF001939FF00D1124E25904
:1045D000F14F81838AEF96E10E9490419091A40C63
:1045E000912749EC51E0949FF001959FF00D112423
:1045F000E259F14F838380939F0C8AEF96E10E94EA
:1046000090419091A40C9127A9ECB1E09A9FF00100
:104610009B9FF00D1124E259F14F848380939E0CEF
:104620008AEF96E10E9490419091A40C912729EC89
:1046300031E0929FF001939FF00D1124ED5CFF4E4D
:1046400080838AEF96E10E9490419091A40C91277B
:1046500049EC51E0949FF001959FF00D1124EC5C22
:10466000FF4E80838AEF96E10E9490419091A40CC6
:104670009127A9ECB1E09A9FF0019B9FF00D1124C6
:10468000EB5CFF4E80838AEF96E10E94904190910F
:10469000A40C192729EC31E0129FF001139FF00DB3
:1046A0001124EA5CFF4E808348E150E05A8349833D
:1046B0008AEF96E10E94904189819A8101979A83BD
:1046C0008983892BA9F7202F30E0A7E0B0E00E9472
:1046D00057496B017C01812C912C5401A30192015B
:1046E000205C3F4F4F4F5F4F29833A834B835C835E
:1046F00001E085EC94E10E944E4169817A818B81D1
:104700009C81680D791D8A1D9B1D0E94E81D8AEF02
:1047100096E10E94464240E450E060E570E08AEF96
:1047200096E10E9426422401350110E48AEF96E1C9
:104730000E9490419091A40C902749EC51E0949FE5
:10474000F001959FF00D1124E259F14FE40DF51D94
:10475000EB5BFE4F808311505FEF451A550A650AE7
:10476000750A1111E3CF80E4880E911CA11CB11CC5
:1047700090E889169104A104B10409F0BACFA3E02E
:10478000CA0ED11CE11CF11C2601370126E0440CA5
:10479000551C661C771C2A95D1F71A821982CC24E5
:1047A000C39439ECA32EBB24B39485EC94E10E940E
:1047B0004E41C301B2010E94E81D8AEF96E10E94BA
:1047C000464240E450E060E570E08AEF96E10E94E6
:1047D0002642E980FA8094E0D92E10E000E04701FB
:1047E00084E0880C991C8A95E1F78AEF96E10E9493
:1047F00090419091A40C9C259A9DF0019B9DF00DF9
:104800001124E80DF91DE00FF11FED54F14F8083E5
:104810000F5F1F4F0031110541F7DA94BFEFEB1A1C
:10482000FB0AD110DACF20E4420E511C611C711C2E
:1048300049815A814C5F5F4F5A834983403151050A
:1048400009F0B3CF0F900F900F900F90DF91CF91A1
:104850001F910F91FF90EF90DF90CF90BF90AF909E
:104860009F908F907F906F905F904F9008954F92A0
:104870005F926F927F928F929F92AF92BF92CF92F0
:10488000DF92EF92FF921F93CF93DF9390E0B0E01F
:10489000A0E06C017D018AE0CC0CDD1CEE1CFF1C4D
:1048A0008A95D1F780EED80EE11CF11C812C912C59
:1048B0005401C2E0D4E0C701B6010E94E81D8AEFAE
:1048C00096E10E94464240E450E064E570E0C11485
:1048D000D10481E0E806F10410F460E570E08AEFAD
:1048E00096E10E9426422401350110E08AEF96E10C
:1048F0000E949041909165049C9FF0019D9FF00D56
:104900001124E359FB4FDF01A40DB51D12968C93C2
:104910001F5F8FEF481A580A680A780A103431F777
:1049200080E4880E911CA11CB11C80E4C80ED11C2F
:10493000E11CF11C811484E09806A104B10409F083
:10494000BACFDF01AF5FBB4F8C9111979C91892744
:104950009827892791838083DF91CF911F91FF90C2
:10496000EF90DF90CF90BF90AF909F908F907F900F
:104970006F905F904F90089560E070E281E090E06A
:104980000E94E81D8AEF96E10E94464240E450E012
:1049900064E570E08AEF96E10E9426428AEF96E194
:1049A0000E94904199278330910514F082E090E0B5
:1049B000809316128AEF96E10E94904199278B3FCF
:1049C000910510F08AEF90E08E31910510F48EE1A0
:1049D00090E090931D1280931C128AEF96E10E9442
:1049E0009041882359F199278131910514F080E194
:1049F00090E0809318128AEF96E10E9490418823FC
:104A000001F199278131910514F080E190E08093C4
:104A100019128AEF96E10E94904191E0811101C044
:104A200090E0909315128AEF96E10E94904191E0F8
:104A3000811101C090E090932212089581E090E0EE
:104A4000D8CF81E090E0E3CFCF93DF930E94BC24E6
:104A5000109214121092EA011092E901C5E1D2E11C
:104A60001A861B8680E00E94F944BC01990F880BCE
:104A7000990B0E94884819868F8198859E838D8323
:104A80000E94AF1A1A82DF91CF9108950F931F935E
:104A9000462F282F30E0A0ECB1E00E9457498B014F
:104AA0009C01842F90E0B0E0A0E08596A11DB11D8F
:104AB000BC01CD01600F711F821F931F0E94E81D72
:104AC0008AEF96E10E94464241E050E060E570E0E6
:104AD0008AEF96E10E9426428AEF96E10E94904179
:104AE0001F910F9108952F923F924F925F926F9274
:104AF0007F928F929F92AF92BF92CF92DF92EF926E
:104B0000FF920F931F93CF93DF9381E00E94980150
:104B100090934E1280934D1280910F12882349F08A
:104B200080912012882329F01092201281E0809336
:104B300078018091E6019091E701059711F01092BC
:104B40008F1280912012811102C010921F12809149
:104B50001013882359F0809151048F5F843008F03E
:104B6000F1C08093510481E08093780180912613F5
:104B7000811104C080914F04882301F1D1E0D093CA
:104B80000F121092E801109214121092EA01109282
:104B9000E90110921212D093041210921E13109277
:104BA00000121092101210920D026AEF70E085EC64
:104BB00094E10E94183E109AD0933C0480911B13FC
:104BC000882321F080915112882341F080914E0476
:104BD000811104C080914D048823A1F00E940A0E27
:104BE00080914E04882309F4B0C010921E13809166
:104BF0001E138F5F80931E13813009F4AFC0823083
:104C000009F4BAC0209160123091501290916B1249
:104C10008091EF12332309F4C2C0222369F021E00E
:104C20002093780121E030E03093E7012093E60102
:104C300010925D0410922012992369F091E09093F4
:104C4000780123E030E03093E7012093E6011092F1
:104C5000201210926404882379F084E090E090930D
:104C6000E7018093E60181E08093780110925D0472
:104C7000109220121092640480918112882321F0F6
:104C800080910A120E94461280918C12882339F07A
:104C900080910A120E94BC1281E08093A30C809143
:104CA000D9128823B9F080910F12811113C081E0CD
:104CB0008093201280911F128F5F80931F12109299
:104CC0005104833020F010921F121092201281E0C4
:104CD000809378018091E6019091E7010397029714
:104CE00008F012C380914D1290914E12009711F46A
:104CF00010924F1220915112222309F403C1892BE3
:104D000009F400C181E08093DE0310925D040E94EB
:104D10004904803108F0E5C0E82FF0E0EE56F94D87
:104D20000C944E49502750275A275A275C275C2756
:104D30005E275E2760276027622766276827682727
:104D4000F12AEF2A109251040ECF80914D0488234E
:104D500009F44DCF81E080931E1349CF8093E80181
:104D600010920F126CEF70E085EC94E10E94183EF7
:104D7000109810923C0446CF1092E801D1E0D093F5
:104D80000F1210921E13109214126BEF70E085EC4C
:104D900094E10E94183E109AD0933C0433CF222312
:104DA00059F01092E7011092E60121E0209378017A
:104DB00010925D04109220129923B9F02091E6011F
:104DC0003091E7012330310509F044C022E030E0A2
:104DD0003093E7012093E60191E0909378011092DF
:104DE0005D04109220121092640481110E94FD1340
:104DF0008091E41281110E94D814809105138823B8
:104E000049F0809108138F5F80930813813029F156
:104E1000823031F180918C12882349F080918F1279
:104E20008F5F80938F12813009F1823071F1809110
:104E3000E6019091E701059711F010928F12809191
:104E40002012811102C010921F128091DA1281117A
:104E50003ECF40CF23E030E0BBCF0E943301DACF1A
:104E600080E00E948E0410920813D4CF8091E60156
:104E70009091E70190930E1280930D1285E090E0DF
:104E80009093E7018093E601D2CF80910D1290912B
:104E90000E129093E7018093E60110928F12C7CF14
:104EA00088E08093E50180914F1281111AC0109221
:104EB0000C1217C089E0F5CF8AE0F3CF8BE0F1CF79
:104EC00082E0EFCF83E08093E501F1CF84E0FBCF78
:104ED00010920C1280914F12811103C08EE08093CA
:104EE000E50180914D1290914E128033910509F4A5
:104EF00086C308F078C38330910509F480C30C970A
:104F000009F47DC38091DE03882349F080917712F4
:104F1000882329F081E0809378011092DE0380914C
:104F20005112882399F08091C312882331F08CE0CC
:104F30008093E50181E08093780180911B138823A1
:104F400029F01092E50181E0809378018091501260
:104F5000882351F080910513882331F08DE08093F0
:104F6000E50181E08093780160915512809154129F
:104F7000882309F47AC080915D04811176C0809104
:104F8000E6019091E701049709F46FC080910F1238
:104F9000882309F46AC04091780C5091790C6623FB
:104FA00021F05093770C4093760C7091E501272FF8
:104FB00030E081E090E0072E02C0880F991F0A942C
:104FC000E2F7842B952B9093790C8093780C409189
:104FD00013125091A40CF901EE0FFF1FA9ECB1E0E0
:104FE0005A9FC0015B9F900D1124E80FF91FE259F1
:104FF000F14FC12CD12C7601C39404C0CC0CDD1C24
:10500000EE1CFF1C4A95D2F7C094D094E094F09423
:1050100045815681C422D522D682C582E0911312E1
:10502000A901F4E0440F551FFA95E1F7480F591F05
:105030004259514FE40FF52FF11DEB5BFF4F2757FE
:105040003E4FD9012C9120837E3061F4E091131200
:105050008259914FE80FF92FF11DEB5DFE4F8091C2
:105060009E01808381E08093A30C80915612882357
:1050700041F08091760C9091770C9093790C80930D
:10508000780C662309F471C080915D0481116DC0B4
:105090008091E6019091E701049709F466C0809140
:1050A0000F12811162C08091A40C90E029EC31E0D4
:1050B000829FF001839FF00D929FF00D112430E04C
:1050C00020E0D901AA0FBB1FAE0FBF1FA259B14FDD
:1050D00016961C921E9215972F5F3F4F2031310577
:1050E00081F7E0909101F09092010091930110916D
:1050F0009401D0918B0170918C0160918D01509140
:105100008F0140919001ED52F14F20E130E0DF013D
:10511000A05ABF4FEC925096FC9250960C9350962A
:105120001C93D1937787678F57AFDF01A15BBF4F88
:105130004C932150310959F729EC31E0829FF0015D
:10514000839FF00D929FF00D1124E259F14F81E001
:10515000838314829FE0908398E1918393E09093FE
:1051600088018093A30C809378018091CE128111E5
:1051700004C08091CF12882319F081E080937801D8
:105180008091CD12882309F443C080914D129091F3
:105190004E12892BE9F10E944904873008F03AC287
:1051A0000E9449048F5F9091A40C09EC11E0909F3C
:1051B000F001919FF00D1124E259F14F838360912A
:1051C0009F0C861729F1685F40E084E094E00E941C
:1051D000054361EA84E094E00E94CC478091A40CEE
:1051E000809FF001819FF00D1124E259F14F6381FE
:1051F00060939F0C685F40E084E094E00E94054368
:105200006BED84E094E00E94CC4781E08093A30C96
:105210008091FA128823F1F080915D0481111AC007
:1052200081E0809378018093A30C8091FD128F5FC1
:10523000843009F422C28093FD128091FD128130E6
:1052400009F42CC208F41CC2823009F434C2833041
:1052500009F43EC28091AC128823E1F080914D1296
:1052600090914E12892BB1F00091A40C10E00E9495
:10527000490429EC31E0029FF001039FF00D129FD9
:10528000F00D1124E259F14F808381E08093780181
:105290008093A30C8091E6019091E7018330910502
:1052A00009F0D5C280917712811110924F1280912E
:1052B000AC12811181C08091511281117DC0809109
:1052C0005D04811179C08091CD12811175C08091EA
:1052D0000F12882309F409C24091A40CC091E50182
:1052E000D0E0CC0FDD1F29EC31E0429FC001439F8D
:1052F000900D1124C80FD91FC259D14F8D819E81A5
:105300000E9406029E838D838091E6019091E701C1
:10531000029709F051C080917712811110924F12BB
:1053200080914D1290914E12892B19F1809180122B
:10533000882309F414C70E944904873008F40CC775
:1053400087E080930B1290910A1280910B12829544
:10535000807F292F2F70820F8093091210929A0C50
:10536000981739F080910F12811103C081E080936A
:10537000A20C80915012882361F08091E41288235E
:1053800041F080911E12833008F04BC78F5F8093ED
:105390001E1280916204882379F080919A0C811109
:1053A0000BC090910A1280910912981719F081E0B0
:1053B0008093A20C109262048091E6019091E70123
:1053C000019711F00C94073280914D1290914E127A
:1053D000892BE9F080918012882309F428C70E9464
:1053E0004904873008F420C787E080930B1290911E
:1053F0000A1280910B128295807F292F2F70820FC5
:1054000080930912981719F081E08093A20C3091D3
:10541000A212332361F18091690490916A0401978B
:105420008130D4E09D0708F01EC790936A048093F2
:1054300069042091650482E094E0289FF001299F8F
:10544000F00D1124E359FB4F8091690490916A0497
:10545000E80FF91F82818093091290910A1289172F
:1054600019F081E08093A20C81E080937801209173
:105470009712222361F18091690490916A04019648
:105480008130E4E09E0708F0F3C690936A048093AD
:1054900069044091650482E094E0489FF001499FCF
:1054A000F00D1124E359FB4F8091690490916A0437
:1054B000E80FF91F82818093091290910A128917CF
:1054C00019F081E08093A20C81E0809378018091B3
:1054D00055128823E1F010926A04109269044091F9
:1054E000650482E094E0489FF001499FF00D11248B
:1054F000E359FB4F82818093091290910A12891718
:1055000019F081E08093A20C81E080937801809172
:105510005012882309F425C78091B712882301F11E
:105520004091650482E094E0489FF001499FF00DAE
:105530001124E359FB4F8081918190936A048093F9
:105540006904E80FF91F82818093091290910A1271
:10555000891719F081E08093A20C81E08093780193
:10556000332309F4AAC68091650490E042E054E038
:10557000849FF001859FF00D949FF00D1124DF01B1
:10558000A359BB4F6D917C916115710509F495C6C6
:10559000C0916904D0916A04DB011197AE014F5F9D
:1055A0005F4FCA17DB0708F0B8C6EC0FFD1FE359C1
:1055B000FB4FCEEFDBEF8C9F80018D9F100D9C9FEA
:1055C000100D11243196EF01CD56D440C00FD11FDC
:1055D000C617D70708F04FC633813283F3CF86E072
:1055E00072CC87E070CC811523E0920741F08115E1
:1055F00030E3930751F0803C910509F083CC81E0C2
:1056000080930C1280934F127DCC8FE08093E50144
:1056100081E0F8CF0E944904883008F4F9CD0E9457
:10562000490488509091A40C09EC11E0909FF0017E
:10563000919FF00D1124E259F14F848360919E0CEB
:10564000861709F4E5CD685F41E084E094E00E94AC
:10565000054361EA84E094E00E94CC478091A40C69
:10566000809FF001819FF00D1124E259F14F648178
:1056700060939E0C685F41E0BFCD1092FD12DDCDBE
:105680002091A40C89EC91E0289FF001299FF00D56
:105690001124E259F14F88E18183DCCD2091A40CE3
:1056A00089EC91E0289FF001299FF00D1124E25927
:1056B000F14F8CE0F1CF2091A40C89EC91E0289F70
:1056C000F001299FF00D1124E259F14F80E2E4CF5F
:1056D0002091A40C89EC91E0289FF001299FF00D06
:1056E0001124E259F14F80E1D7CF809175128823C0
:1056F00009F462CE809180128823E9F00E94490467
:105700008730B0F087E080930B1290910A1280915D
:105710000B128295807F292F2F70820F80930912A0
:10572000981719F081E08093A20C10929A0CECCD9E
:105730000E944904E8CF0E945F04882309F44DC009
:10574000109262040E945F04C82F0E944904C81B83
:10575000C0939A0C0E94490490910B129295907FED
:10576000890F80939B0C8093091281E080934F12E4
:1057700080939D0C8091C312882321F110929D0C7F
:10578000D0E0C0E060919A0C80919B0C6C171D06D4
:10579000BCF061E08C0F0E944625182F882371F021
:1057A00080919B0C60E08C0F0E94462590919B0C91
:1057B0009C0F612F981B892F0E94C8202196E2CF51
:1057C0000E94812090910A1280910912981709F481
:1057D0009BCD81E08093A20C97CD80914F128111D7
:1057E000F1CF10929D0C0E94490490910B1292955A
:1057F000907F890F809309129091C3129923C1F071
:105800009091A40C49EC51E0949F9001959F300D2C
:1058100011242259314FF901E953FE4F2A533E4FCB
:10582000D9019C916081891B0E94C82010929A0C1A
:105830002091A40C89EC91E0289FF001299FF00DA4
:105840001124EC5CFF4E808180939C0CBBCF0497AD
:1058500009F05ACD80915412882309F49AC080919E
:105860005512882341F08091780C9091790C909397
:10587000770C8093760C80914D1290914E12892B6B
:1058800009F411C10E9449048031B8F4E82FF0E016
:10589000E45BF34D0C944E49512D512D5C2C5C2C46
:1058A0003D2D3D2D3F2D3F2D412D412D432D452D8E
:1058B000472D472D4F2D4D2DC9E080914D129091D0
:1058C0004E128115904321F481E080934F12CFE076
:1058D0002C2F30E081E090E00C2E02C0880F991F41
:1058E0000A94E2F74091760C5091770C842B952B1B
:1058F0009093790C8093780CA09113126091A40C72
:10590000F901EE0FFF1F49EC51E0649FC001659F54
:10591000900D1124E80FF91FE259F14F41E050E0DA
:1059200060E070E004C0440F551F661F771FAA9502
:10593000D2F74095509560957095A581B6814A2320
:105940005B2356834583E0911312A901D4E0440FF1
:10595000551FDA95E1F7480F591F4259514FE40F8F
:10596000F52FF11DEB5BFF4F27573E4FD9012C91CF
:105970002083CE3059F4E09113128259914FE80FF1
:10598000F92FF11DEB5DFE4F80E5808381E0809370
:10599000A30C80915612882341F08091760C90914F
:1059A000770C9093790C8093780C8091AC128111D4
:1059B00026C180915112811122C18091541281110E
:1059C0001EC18091CD1281111AC180914D1290910A
:1059D0004E12882790738115904309F075C081E0BD
:1059E0008093DD030EE213E1F12CE12C22E0722E14
:1059F000812C912C54018394C9ECD1E048E0342EE1
:105A000053E0252E6EE0462E7BE0572EEAE06E2E08
:105A1000DE2C80914D1290914E120E2C02C0969564
:105A200087950A94E2F7282F2170F80120833181AD
:105A3000231709F4D6C022812111D3C080FFD1C021
:105A40009091DD03EFEFEE0D80910F12EF3008F033
:105A50003EC0F0E0E25DF24D0C944E493B2E682EC4
:105A60008B2E9A2EBC2ECB2EED2EFC2E1E2F622FAF
:105A7000842F2D2F512FA72FCA2FCAE01ECFCBE086
:105A80001CCFC2E01ACFC3E018CFC4E016CF80917C
:105A90004F12811112CFCEE010CFC6E00ECFC7E07B
:105AA0000CCFC8E00ACF8091760C9091770C2091B2
:105AB000780C3091790C2817390709F46ACF909344
:105AC000790C8093780C65CF1092DD038BCF6091B9
:105AD000A1018823C9F0E091121220910E02709169
