:020000040000FA
:100000000C94FB000C9425010C9425010C94250103
:100010000C9425010C9425010C9425010C942501C8
:100020000C9425010C94A1060C9425010C94250137
:100030000C9425010C94AE1D0C9425010C94250103
:100040000C9425010C9425010C942B4B0C94250148
:100050000C9425010C9425010C9425010C94250188
:100060000C9425010C9425010C9487440C942501D3
:100070000C9491480C94C7480C9425010C942501CC
:100080000C94930E0C9425010C9425011E011B0168
:100090001801150112010F010C01090106010301EC
:1000A0000001FD003601330130012D012A01270135
:1000B00024012101750171016D0169016501610171
:1000C0005D015901550151014D01490145014101B0
:1000D0003D013901E500E200E900ED00F900F5001D
:1000E000F100484800432F4F004652450053594EF7
:1000F0000045585000534C56004D535400204200C8
:1001000041230020410047230020470046230020D0
:1001100046002045004423002044004323002043A0
:10012000002B34002B33002B32002B31002B3000FE
:100130002D31002D32002D3300204F480020434840
:10014000004558540041434300204D5400204C5476
:100150000020534400204244004352480052494486
:10016000002020200048434C0052494D00204854B4
:100170000020202000545247000000000203000A23
:100180000B0000000005040908000000000000004A
:1001900000000000000000000001020408102040E0
:1001A0008001020408102040800102040810204051
:1001B00080010204081020408002020202020202B2
:1001C00002040404040404040403030303030303F8
:1001D00003010101010101010100002200250028A5
:1001E000002B0000002100240027002A0000E11D50
:1001F000463F9843FB4811241FBECFEFD0E4DEBF3B
:10020000CDBF13E0A0E0B1E0EAEEF0EA00E00BBF02
:1002100002C007900D92A43FB107D9F724E2A4EFE2
:10022000B3E001C01D92A436B207E1F710E0CBEFB6
:10023000D0E004C02197FE010E94524DC73FD10774
:10024000C9F70E941C4B0C9473500C94000081E081
:1002500080937904089581E080937804089581E083
:1002600080937704089581E191E190932C1E80930F
:100270002B1E4091CE0C29EC35E0429FC001439FDC
:10028000900D112488569D4EFC01EB58FB4F2FE733
:10029000208334962EE12083349620838F579B4F02
:1002A000FC012083089520914F22222359F0213010
:1002B00061F42DB320934D223DB320914E22209521
:1002C00023232DBB8CBD9DBD08952FB7F89420939B
:1002D0004D22F8CF8EBD00000DB407FEFDCF8EB5C8
:1002E000089590914F22992339F080914D229130B9
:1002F00011F48DBB08958FBF0895FC011482138201
:1003000081E06115710509F480E08083918189178E
:1003100041F09281911107C0672B11F091E0938316
:10032000828381830895672BD9F791E09483F8CF76
:100330008F929F92AF92BF92CF92DF92EF92FF92F5
:10034000CF93DF936091162070911720882361F07E
:10035000CB01DF91CF91FF90EF90DF90CF90BF90D6
:10036000AF909F908F90089520912C0430912D0490
:10037000E8E5FFE150E040E0B1E0812C912C540130
:1003800083941382EB01042E02C0D695C7950A947C
:10039000E2F78C2F817080839181891769F09281B7
:1003A00091110AC0C0FF08C0B38396819F5F9683F6
:1003B000913079F09230D1F081834F5F5F4F3B965F
:1003C00040315105F1F630932D0420932C04B901EE
:1003D000BFCF75016401042E04C0CC0CDD1CEE1CE3
:1003E000FF1C0A94D2F72C293D29E6CF168275010D
:1003F0006401042E04C0CC0CDD1CEE1CFF1C0A940E
:10040000D2F7C094D0942C213D21D6CF2F923F9289
:100410004F925F926F927F928F929F92AF92BF9214
:10042000CF92DF92EF92FF920F931F93CF93DF93C0
:1004300000D000D01F92CDB7DEB7209016203090AC
:1004400017207090CD0C6091EB010AEF060F0B8323
:1004500014EF160F1C832091361E2A83A62FB0E0BE
:10046000E8E5FFE17091CE0C29EC35E0729FA00128
:10047000739F500D11249D0174E0220F331F7A9554
:10048000E1F7420F531F48565D4E30E020E071E027
:10049000C12CD12C7601C3948D0101561E4F480109
:1004A0008D0101571E4F5801022F1382D101022ED8
:1004B00002C0B695A7950A94E2F71A2F1170198316
:1004C00010836180161539F16280611022C0A0FF8F
:1004D00020C07383DC01022E02C0B695A7950A9452
:1004E000E2F7A170BB276F3041F01B81123028F07A
:1004F0001C81123010F0611143C0AB2B61F1A2E0FE
:10050000A683A681A13049F1A23009F4B4C07724B2
:100510007394B981B1832F5F3F4F3B9620313105F2
:1005200019F67092CD0C0F900F900F900F900F90C6
:10053000DF91CF911F910F91FF90EF90DF90CF90BF
:10054000BF90AF909F908F907F906F905F904F90F3
:100550003F902F9008957683D4CF2601370104C0B1
:10056000440C551C661C771C0A95D2F784299529E2
:10057000D901AB5BBB4F3D01640E751ED40171C048
:100580001A81112309F442C0AB2BB1F1D901AB5B45
:10059000BB4FA40FB51FAC91A7FF2BC01A2F1F771D
:1005A000D5017C90711610F5B3E0B683A681A23018
:1005B00029F1A33009F45FC0A13009F0A8CF2601CA
:1005C000370104C0440C551C661C771C0A95D2F7F1
:1005D00084299529D901AB5BBB4F3D01640E751E83
:1005E000D5010C910058D3010C9391CF12E01683E2
:1005F000DDCFA3E0A683DACF7683D8CFD901AB5B7A
:10060000BB4F3D01640E751ED401EBCFAB2B89F1BE
:10061000D901AB5BBB4FA40FB51F1C9117FD26C0C2
:10062000D5017C907116F8F4B3E0B683A681A230B0
:1006300009F49ECFA330F9F0A13009F068CF26016C
:10064000370104C0440C551C661C771C0A95D2F770
:1006500084299529D901AB5BBB4F3D01640E751E02
:10066000D5010C91C0CF12E01683E0CFA3E0A683A2
:10067000DDCF7683DBCF16822601370104C0440C20
:10068000551C661C771C0A95D2F74094509484211F
:1006900095213DCF6F927F928F929F92AF92BF92A2
:1006A000CF92DF92EF92FF920F931F93CF93DF933E
:1006B0006091751E7091761E7093741E6093731E08
:1006C000E0911620F0911720F093761EE093751EAE
:1006D0006E177F0709F468C04091A20C5091A30CDB
:1006E00020914D1E30914E1E80904C1EA091BB015A
:1006F00081E090E08C0102C0000F111FAA95E2F783
:10070000E0900902F0900A02A091BC015C0102C0D5
:10071000AA0CBB1CAA95E2F7C0910B02D0910C0267
:1007200090E080E0CC24C394D12CDF01082E02C0DD
:10073000B695A7950A94E2F7A0FF2AC0DB01082E20
:1007400002C0B695A7950A94E2F7A0FD21C0DC018E
:10075000A155BE4FAC91360102C0660C771CAA951C
:10076000E2F7D30146255B27DC01AA0FBB1FAF5080
:10077000BE4F0D90BC91A02D2A273B27882041F029
:10078000ACE07A2E87111FC04A255B252C273D2718
:1007900001968031910549F65093A30C4093A20C29
:1007A00030934E1E20934D1EDF91CF911F910F91DC
:1007B000FF90EF90DF90CF90BF90AF909F908F9081
:1007C0007F906F900895ADE08A13E2CF40275127C4
:1007D0002E253F25DDCF0F931F93CF93DF9360919D
:1007E000711E7091721E7093701E60936F1EE09167
:1007F0001620F0911720F093721EE093711E6E1771
:100800007F0709F441C0409146045091470420916C
:1008100048043091490490E080E0C1E0D0E0DF017D
:10082000082E02C0B695A7950A94E2F7A0FF20C053
:10083000DB01082E02C0B695A7950A94E2F7A0FD49
:1008400017C0DC01A155BE4FAC918E0102C0000F54
:10085000111FAA95E2F7D80140275B27DC01AA0FF8
:10086000BB1FAF50BE4F0D90BC91A02D2A273B2738
:1008700001968031910599F65093470440934604C0
:100880003093490420934804DF91CF911F910F9139
:10089000089581E00E94980130E020E0AC01022E32
:1008A00002C0569547950A94E2F740FF02C0822F96
:1008B00008952F5F3F4F2031310581F7089581E082
:1008C0000E949801AC0130E020E090E0BA01022ED5
:1008D00002C0769567950A94E2F760FF05C09130F3
:1008E00011F4822F089591E02F5F3F4F20313105A1
:1008F00069F780E00895E8E5FFE116823B9680E223
:10090000E830F807D1F71092481F1092321F10926A
:10091000271F10923D1F1092B91E089581110C944B
:10092000330110922C1E10922B1E4091CE0C29ECFC
:1009300035E0429FC001439F900D112488569D4E83
:10094000FC01EB58FB4F20E520833496208334963E
:1009500020838F579B4FFC012083089584B1886DBD
:1009600084B98AB1806F8AB981B18C6E81B9129ACB
:1009700061E088E10E94724C61E089E10E94724C62
:1009800061E08AE10E94724C61E08BE10E94724C4E
:1009900060E080E00E94724C60E081E00E94724C56
:1009A0000E94A1428FEF0E94B74280E592E20C9430
:1009B0005E430F931F930E94754B00910820109186
:1009C000092020910A2030910B20601B710B820BB3
:1009D000930B663071058105910508F44BC00E94A8
:1009E000754B609308207093092080930A209093A0
:1009F0000B2080918204909183040E9453015C9AA1
:100A000080E00E946A0180930C2080E00E946A01CD
:100A100080930E2080E00E946A018093102080E085
:100A20000E946A018093122080E00E946A018093F4
:100A300014205C980E94710183B182FB882780F9A1
:100A400080937D04ECE0F0E230E020E09081418191
:100A5000941304C0D901AA5EBF4D9C932F5F3F4FF2
:100A600032962530310591F790917E04891302C0AA
:100A700080937C0480918204909183040E945301AE
:100A80005C9A80E00E946A0180930D2080E00E94C1
:100A90006A0180930F2080E00E946A0180931120F8
:100AA00080E00E946A018093132080E00E946A0126
:100AB000809315205C980E94710183B182FB882786
:100AC00080F980937E041F910F9108950F931F93D7
:100AD000CF93DF930E94D904C0911820D0911920A0
:100AE00010911A20C4FB882780F980937B1EC3FBDA
:100AF000882780F980937A1E6C2F647070E08CE7F1
:100B00009EE10E947D016D2F687070E087E89EE194
:100B10000E947D016D2F607870E082E99EE10E9465
:100B20007D016D2F607470E086E19FE10E947D0180
:100B30006D2F607270E08BE09FE10E947D016C2F51
:100B4000607870E08DE49FE10E947D016C2F617000
:100B500070E082E49FE10E947D016D2F607170E082
:100B60008CE29FE10E947D016C2F627070E081E257
:100B70009FE10E947D016C2F607470E084ED9EE126
:100B80000E947D01C0726C2F70E085EF9EE10E9493
:100B90007D016D2F647070E089EC9EE10E947D0103
:100BA0006D2F627070E08EEB9EE10E947D01612FDF
:100BB000647070E080E09FE10E947D016D2F6170A4
:100BC00070E08FED9EE10E947D01612F627070E008
:100BD00083EB9EE10E947D01612F617070E088EAE5
:100BE0009EE10E947D0160917C0470E087E39FE1BB
:100BF0000E947D0160911620709117208DE99EE181
:100C00000E947D011092EE1E1092ED1E81E0912F48
:100C1000987013FF80E08093EA1E2091EB1E8217EC
:100C200011F18091EC1E81110FC0992369F081E0D0
:100C30008093ED1E0E94754B6093F11E7093F21E1F
:100C40008093F31E9093F41E8091EA1E9091EC1E07
:100C5000992339F0811105C091E09093EE1E109216
:100C6000EF1E8093EC1E8091EA1E8093EB1E809114
:100C7000EC1E8823B1F00E94754B0091F11E10917B
:100C8000F21E2091F31E3091F41E601B710B820B3B
:100C9000930B693E73408105910518F081E08093C4
:100CA000EF1EE8E5FFE1138214823B9680E2E83014
:100CB000F807C9F7DF91CF911F910F910895FF9227
:100CC0000F931F93CF93DF93082FF92ED62F172F53
:100CD000C42F80918204909183040E9453012C9828
:100CE0008F2D0E946A01802F0E946A01812F0E942D
:100CF0006A018D2F0E946A018C2F0E946A012C9A32
:100D0000DF91CF911F910F91FF900C947101CF93C0
:100D1000DF93EC0180918204909183040E9453013F
:100D20002B988D2F0E946A018C2F0E946A012B9AAA
:100D30000E947101D0939D0CC0939C0CDF91CF91C8
:100D400008951F920F920FB60F9211240BB60F92B7
:100D50002F933F934F935F936F937F938F939F93C3
:100D6000AF93BF93EF93FF931092B1001092B20034
:100D700080919E0C90919F0C0E948706FF91EF91AD
:100D8000BF91AF919F918F917F916F915F914F91A3
:100D90003F912F910F900BBE0F900FBE0F901F90A1
:100DA0001895CF93DF93803808F08FE790E2899F02
:100DB000E0011124D06180918204909183040E940B
:100DC00053015D988D2F0E946A018C2F0E946A0149
:100DD0005D9ADF91CF910C94710180918404909180
:100DE00085040E9453015C9A80E00E946A0180E0C1
:100DF0000E946A0180E00E946A018093600480E0A2
:100E00000E946A0180E00E946A0180935F045C98FE
:100E10000C9471010F931F93CF93C82F80915E04A0
:100E2000882361F00E94754B609328047093290415
:100E300080932A0490932B0410925E040E94754BB9
:100E4000009128041091290420912A0430912B0448
:100E5000AB01BC01401B510B620B730B8C2F90E05C
:100E6000B0E0A0E0481759076A077B0738F01299ED
:100E700005C080915E04811101C0129ACF911F912B
:100E80000F91089523B121702093810433B1327002
:100E900030938004211108C040917F04442321F045
:100EA000332329F0860F971F20937F0408953091F4
:100EB0007B1E332389F030917B04313049F010F0F0
:100EC000323091F78A3091057CF3861B970BECCF7B
:100ED00080319105D4F7E8CF0097B9F7E5CF0F93AC
:100EE0001F93CF93DF938091B20080934D04C2E0B3
:100EF000D0E001E010E098010C2E02C0220F331F59
:100F00000A94E2F780919C0C90919D0C822393238C
:100F1000892BF1F080914D04FE01E25BFB4F908143
:100F2000891B8032A8F080919C0C90919D0C20959B
:100F30003095822393230E94870680919C0C909188
:100F40009D0C8D7F892B21F410926E1E10926D1EC8
:100F50002196CC30D10579F6DF91CF911F910F9179
:100F6000089580914A1E8111DDC00E94D9048091AC
:100F7000182083FB882780F980937A1E60911920BE
:100F8000607170E08CE29FE10E947D0160911A2007
:100F9000617070E088EA9EE10E947D0160911A20F4
:100FA000627070E083EB9EE10E947D0160911A20E7
:100FB000647070E080E09FE10E947D0160911820E4
:100FC000617070E082E49FE10E947D0160917C0489
:100FD00070E087E39FE10E947D018091AB1E882332
:100FE000D9F080915B1E882309F462C081E0809370
:100FF0005C1E10925B1E80915C1E41E060E08823C5
:1010000009F45DC08EE294E00E94564665E272E00B
:101010008EE294E00E9472498091B61E8823D9F036
:1010200080915C1E882309F451C010925C1E81E0FF
:1010300080935B1E80915B1E41E060E0882309F491
:101040004AC08EE294E00E94564667E472E08EE267
:1010500094E00E94724980912F1F882339F081E02B
:1010600090914A04911180E080934A0480915B1E24
:101070008823C1F10E944A038091451F882351F0C3
:101080008091A20C9091A30C21E082279093A30C55
:101090008093A20C8091391F882309F443C01092D9
:1010A000A30C1092A20C10924E1E10924D1E089589
:1010B00080915C1E91E0892780935C1E9CCF8EE21C
:1010C00094E00E94564666E372E0A2CF80915B1ED8
:1010D00091E08927ADCF8EE294E00E94564666E308
:1010E00072E0B5CF80915C1E8823E1F00E94EB0393
:1010F0008091451F882351F08091460490914704C8
:1011000021E0822790934704809346048091391F01
:10111000882341F01092470410924604109249042B
:1011200010924804089550915C1EE0915B1E8091DE
:101130004B1E60914A0470E0762F66277295707F8F
:10114000782B852F90E0982F88279295990F907E85
:10115000682B792B8E2F90E090E4899F902D882723
:101160001124682B792B8091021F90914A1E892BA4
:1011700090E09927869597958827682B792B70930F
:10118000671E6093661E4091681E20916D1E30910F
:101190006E1EEE2321F19091A20C9170492B80914B
:1011A0004D1E90914E1E822B932B0E945F0682B1A2
:1011B00082FB882780F991E0892790914A0489234E
:1011C00090917A1E990F892B8093681E80916D1ED5
:1011D00090916E1E90934C0480934B040895C90126
:1011E000552319F3909146049170492B809148043E
:1011F00090914904D8CF66E372E08EE294E00C94BB
:1012000072490F931F93CF93DF93D0E0C0E0082F74
:1012100010E0C017D1073CF461EA8EE294E00E942E
:101220007A492196F6CFDF91CF911F910F910895C2
:1012300040E064E08EE294E00E94564668E572E089
:101240008EE294E00C94724940E060E08EE294E01B
:101250000E94564661E672E08EE294E00E94724976
:1012600041E060E08EE294E00E9456460E94FB0856
:1012700041E060E08EE294E00E94564662E772E050
:101280008EE294E00E94724941E061E08EE294E0D7
:101290000E9456468EE00E94010941E06FE08EE216
:1012A00094E00E94564664E772E08EE294E00E9469
:1012B00072492091CE0C89EC95E0289FF001299F7E
:1012C000F00D1124E05AF74E60816F5F41E08EE22D
:1012D00094E00E9456466BED8EE294E00C947A49BD
:1012E00040E060E08EE294E00E94564666E772E0DD
:1012F0008EE294E00E94724941E060E08EE294E068
:101300000E9456460E94FB0841E060E08EE294E0B5
:101310000E94564667E872E08EE294E00C947249AF
:1013200040E060E08EE294E00E94564668E972E098
:101330008EE294E00E94724941E060E08EE294E027
:101340000E9456460E94FB0841E060E08EE294E075
:101350000E94564669EA72E08EE294E00C9472496B
:101360002F923F924F925F926F927F928F929F92B5
:10137000AF92BF92CF92DF92EF92FF920F931F93A3
:10138000CF93DF9380917A1E8093581E40917B1EED
:101390004093591E60917E1E6093571E5091F71E18
:1013A0005093561E2091231F2093551EE091D61E68
:1013B000E093541E982F990F84E0489F80011124D8
:1013C000A8E06A9FB0011124B0E15B9FE001112405
:1013D00080E2E89FF0011124A0E42A9F90011124EB
:1013E000A091391E892F802BAA2309F4F9C08068A7
:1013F000862B8C2B8E2B822B8093681E8091EC0188
:101400009091ED018130910509F4F6C0D1E000978B
:1014100009F0D0E0D093641E8330910509F4EFC049
:10142000E1E08230910509F0E0E0E093601EF09188
:10143000181F8430910511F4F0911302F0935F1E90
:1014400020918704222309F4DDC021E02093631E4C
:101450002093621E30910D1F30935E1E7091271FE6
:1014600001E010E002C0000F111F7A95E2F700932F
:10147000531E21E06091321F611101C020E02093D2
:101480005D1EB091EB018330910531F4BD3021F444
:101490002091130220935D1EC091AA1EC0935C1E72
:1014A000442319F021E0BC3079F02091CA0C2111BD
:1014B00009C020918E04211105C020914B1E2223CA
:1014C00009F4A7C0209113022093521E8530910584
:1014D00009F0A2C021E020935B1E20914A1E222326
:1014E00009F49DC02091130220935A1E6091631E3F
:1014F00020E4629FB0011124E090621E20E8E29E89
:10150000700111246E297F292091611E622B209188
:10151000521E722B232F30E0322F2227330F330F2E
:10152000330F262B372B60915D1E70E0762F6627D8
:101530007295707F262B372BEC2EF12C60E2E69E05
:10154000F02CEE2411242E293F2960915B1E70E0BF
:1015500070E4679F702D66271124262B372B60912E
:101560005A1E70E07727669577956627622B732B56
:10157000000F111F0E7F1170602B712B10E2D19F95
:1015800090011124622B732B2E2F30E0322F222753
:10159000330F622B732B2F2F30E0322F2227330F84
:1015A000330F622B732B7093671E6093661EB031EE
:1015B00008F03EC0EB2FF0E0E052F54F0C94524D96
:1015C0005A0B180B480B4B0B4E0B180B540B570BAD
:1015D000120B3F0B420B450B5A0B5A0B510B510B85
:1015E000909113028160862B8C2B8E2B822B9795EA
:1015F00099279795892B00CFD09113020BCFE091BB
:10160000130213CF2091CB1E2093631E2091C01E86
:101610001FCF1092521E5ACF10925B1E5ECF2091A8
:10162000021F62CF23E030E03093511E2093501E02
:101630008230910509F49EC008F041C0009709F47A
:1016400057C08130910509F46BC04091681E8091AC
:101650006D1E90916E1EDF91CF911F910F91FF90A3
:10166000EF90DF90CF90BF90AF909F908F907F9042
:101670006F905F904F903F902F900C945F062CE0FE
:1016800030E0D2CF20E330E0CFCF20EC30E0CCCF41
:1016900020E033E0C9CF20E034E0C6CF20E038E0DE
:1016A000C3CF20E030E3C0CF20E030E8BDCF20E062
:1016B00030E4BACF1092511E1092501EB9CF85302F
:1016C000910508F4D1C0059709F0BFCF80914D1E58
:1016D00090914E1E90936E1E80936D1E8091391FC7
:1016E000882309F4B2CF10924E1E10924D1EADCF3A
:1016F00030919204AA23A9F12091120240913D1E3B
:1017000081E090E002C0880F991F3A95E2F730E03F
:1017100002C0220F331F4A95E2F7822793270BC09E
:10172000CC2371F02091351E81E090E002C0880F3B
:10173000991F2A95E2F790936E1E80936D1E85CFB8
:101740002091E11E222319F020919204EFCF3091D5
:10175000341E3F70AA2329F02091120240913D1EB1
:10176000D1CF8091130290E002C0880F991F3A9563
:10177000E2F7E1CFC111D6CF2091C40CB091331E56
:10178000BF70A1112EC030E04091C50C4F70F0E049
:10179000E0E090E080E050E0812C912C54018394B3
:1017A000EC01C40FD51F7501640104C0CC0CDD1C15
:1017B000EE1CFF1CCA95D2F7EC29FD2901962817CB
:1017C000390774F78091130291E0892790E002C0F5
:1017D000880F991FBA95E2F7809590958E239F23E5
:1017E000AACF2223A1F14091C50C4F70F0E0E0E0B8
:1017F00090E080E030E050E0812C912C5401839403
:101800002817390784F0EC01C40FD51F7501640156
:1018100004C0CC0CDD1CEE1CFF1CCA95D2F7EC29D1
:10182000FD290196EDCF8091130220911202409183
:101830003D1E91E09827892F90E002C0880F991FE4
:10184000BA95E2F7809590958E239F2360CF809183
:1018500013022091120240913D1E90E002C0880FB9
:10186000991FBA95E2F753CF442311F180914F1E8F
:101870002091501E3091511E883038F030936E1EEA
:1018800020936D1E10924F1EE0CEBF3051F425758F
:101890003D7F30936E1E20936D1E8F5F80934F1E91
:1018A000D4CE9091361E9111F4CF25753D7DF1CFA8
:1018B0005523C9F120914F1E283038F08FE79FEF54
:1018C00090936E1E80936D1EDDCF3091CE0C49EC4F
:1018D00055E0349FC001359F900D112488569D4ED0
:1018E000FC01ED5FFB4FE081E150FF0B41E050E078
:1018F000DA0102C0AA0FBB1FEA95E2F7FD018C5F77
:101900009B4FDC018C91885F02C0440F551F8A9564
:10191000E2F74E2B5F2B50936E1E40936D1E2F5F90
:1019200020934F1E92CEAA2309F4B0C08B2F90E0D3
:101930000091361E4091CE0C5C0124E0AA0CBB1C29
:101940002A95E1F729EC35E0429FF001439FF00D25
:101950001124AE0EBF1EB0E0A0E050E040E030E049
:1019600020E0C12CD12C7601C394EC01CC0FDD1FFB
:10197000CE0FDF1FC356D94EFC01E157FE4F1F01AA
:10198000C9018A0D9B1D8352994EFC0110810023D1
:1019900009F444C017FF5EC088819981022E02C0FD
:1019A000969587950A94E2F7817099271F77F10140
:1019B0009080911608F03FC0892B61F02601370115
:1019C000022E04C0440C551C661C771C0A94D2F7E6
:1019D000442955292F5F3F4F2031310589F6509317
:1019E0006C1E40936B1EB0936A1EA093691E2091DB
:1019F0004F1E809112022830F0F120913D1E90E0A0
:101A000002C0880F991F2A95E2F7A827B9274A2B09
:101A10005B2B50936E1E40936D1E34CF17FD1AC082
:101A200088819981022E02C0969587950A94E2F7E3
:101A300081709927BCCF892B69F226013701022ECC
:101A400004C0440C551C661C771C0A94D2F7A429C8
:101A5000B529C0CF26013701022E04C0440C551C05
:101A6000661C771C0A94D2F7409450944421552167
:101A7000A421B521AFCF30913D1E90E002C0880F68
:101A8000991F3A95E2F74827592745CFC1114ACE09
:101A9000A091C40CB0E09091C50C9F70F0E0E0E024
:101AA00050E040E0292F30E0812C912C54018394A8
:101AB000CA01820F931F7501640104C0CC0CDD1CA8
:101AC000EE1CFF1C8A95D2F7EC29FD294F5F5F4F72
:101AD000A417B5076CF78091130291E0892790E075
:101AE0002091341E2F7002C0880F991F2A95E2F7AB
:101AF00073CE1092790410927804109277040895AE
:101B0000645F282F40E08BE190E20C94DE3F8091EF
:101B10007A048823B1F110927A0490913A1E2091B0
:101B2000CE0C30E08091421E9923A9F0E0913A1E3C
:101B300069EC75E0269FA001279F500D369F500D40
:101B4000112448565D4EE40FF52FF11DEC5BFA4F62
:101B500060810C94800D49EC55E0249FF001259F95
:101B6000F00D349FF00D11249F0128563D4EF901D0
:101B7000EB53FA4FE081E20FF32FF11DEB5BFA4FCD
:101B8000E7CF0895645F282F8BE190E20C94D43F57
:101B900066ED7DE18BE190E20E94AE3D67E271E08F
:101BA0008BE190E20E94B43D6BE271E08BE190E248
:101BB0000E94C03D6FE271E08BE190E20C94BA3D6F
:101BC00068EF70E08BE190E20E94C63D6AEF70E042
:101BD0008BE190E20E94C63D6CEF70E08BE190E2F9
:101BE0000E94C63D6BEF70E08BE190E20C94C63D25
:101BF00065E071E18BE190E20E94A83D60E971E14E
:101C00008BE190E20C94A23D60E970E08BE190E200
:101C10000E94C63D60E870E08BE190E20C94C63D06
:101C20002091421E40E06BE78BE190E20C94E83F8C
:101C30008FE090E00E94DF4B5E9885E090E00E948C
:101C4000DF4B5E9A0895EF92FF920F931F93CF930D
:101C5000DF93CFE7D1E009E811E039ECE32E35E07E
:101C6000F32E20912F1E3091301E4991842F90E049
:101C700002C0369527954A95E2F720FF46C040916D
:101C8000CE0C50E0E0913D1E24E0880F991F2A956C
:101C9000E1F74E9D90014F9D300D5E9D300D11245A
:101CA000820F931F88569D4EE80FF92FF11DEB5BB5
:101CB000FB4F908197FD9F7780913D1E4E9D900137
:101CC0004F9D300D5E9D300D112428563D4EF9017B
:101CD000E35EFB4F4081518102C0569547958A953E
:101CE000E2F780E040FF06C028533A4FF9018081B7
:101CF000880F880F890F0E94D10682B18F71F80179
:101D00009081892B82B90E94180E0F5F1F4FF1E05E
:101D1000C438DF0709F0A5CFDF91CF911F910F9154
:101D2000FF90EF9008951F920F920FB60F9211241B
:101D30000BB60F922F933F934F935F936F937F93C5
:101D40008F939F93AF93BF93EF93FF931092910064
:101D500010929500109294000E94230E80912F1EE5
:101D60009091301E40919E0C50919F0C2091A20C9E
:101D70003091A30C2095309582239323842B952BAF
:101D80000E94870685E08093B1001092301E109269
:101D90002F1EFF91EF91BF91AF919F918F917F91F6
:101DA0006F915F914F913F912F910F900BBE0F90CC
:101DB0000FBE0F901F9018958FE090E00E94DF4BB0
:101DC0005F9885E090E00E94DF4B5F9A08958F92C4
:101DD0009F92AF92BF92CF92DF92EF92FF920F93BA
:101DE0001F93CF93DF938091311E9091321EC0914B
:101DF000A20CD091A30CC095D095C823D923A4E8F8
:101E0000CA2EA1E0DA2EB9E8EB2EB1E0FB2E1EE8D7
:101E1000812E11E0912E870189ECA82E85E0B82E45
:101E2000D601ED916D018E2F90E09E010E2E02C025
:101E3000369527950A94E2F720FD04C0D7FF3BC0F2
:101E4000EE30C9F56091CE0C70E06A9DA0016B9DEB
:101E5000500D7A9D500D112448565D4EDA01A35E57
:101E6000BB4F2D913C91D7FFB4C0EE3009F0B1C00B
:101E7000E0913D1EE40FF52FF11DEB5CFA4F9081D0
:101E800080913D1E02C0369527958A95E2F780E045
:101E900020FF06C048535A4FFA018081880F880FEF
:101EA000890F0E94D10682B18F7190918B01892B8D
:101EB00082B90E94DC0E0F5F1F4F8016910609F059
:101EC000AFCF0FE711E054E8C52E51E0D52E69ECF5
:101ED000862E65E0962EAA24A394B12CD8015D919C
:101EE0008D01852F90E09E01052E02C03695279525
:101EF0000A94E2F720FF59C02091CE0C30E0E09127
:101F00003D1E44E0880F991F4A95E1F7289DB001D6
:101F1000299D700D389D700D1124860F971F8856CE
:101F20009D4EE80FF92FF11DEB5BFB4F908197FF62
:101F300012C060912F1E7091301EF50102C0EE0F8D
:101F4000FF1F5A95E2F7AF01462B572B5093301ED7
:101F500040932F1E9F7780913D1E289DA001299DB3
:101F6000500D389D500D11249A0128563D4EF9010F
:101F7000E35EFB4F4081518102C0569547958A959B
:101F8000E2F780E040FF06C028533A4FD9018C9118
:101F9000880F880F890F0E94D10682B18F71F701D7
:101FA0009081892B82B90E94180EFFEFEF1AFF0A69
:101FB000C016D10609F092CFDF91CF911F910F91FA
:101FC000FF90EF90DF90CF90BF90AF909F908F9059
:101FD0000895E0913D1EF4E0880F991FFA95E1F70E
:101FE0006A9DA0016B9D500D7A9D500D1124840FA8
:101FF000951F88569D4EE80FF92FF11DEB5BFB4FA7
:10200000908180913D1E02C0369527958A95E2F712
:1020100080E020FF06C0405A574EDA018C91880FAD
:10202000880F890F0E94D10682B18F71F8019081CB
:102030003ECFE82FF0E0E65BFE4F6083EEEFE80F67
:10204000EE3008F060C0862FF0E0E75DFF4E0C94A4
:10205000524D56105D106710831075107C103710AC
:10206000411048104F10831083106E106E100E94A4
:10207000D10682B18F7190918B01892B82B90C941A
:10208000180E0E94D10682B18F7190918A01F5CF0E
:102090000E94D10682B18F7190918901EECF0E948A
:1020A000D10682B18F7190918C01E7CF0E94D10649
:1020B00082B18F7190918D01E0CF0E94D10682B1E3
:1020C0008F7190918A01892B82B90C94DC0E0E9449
:1020D000D10682B18F7190918901F5CF0E94D1060E
:1020E00082B18F7190918B01EECF0E94D10682B1A7
:1020F0008F7190918D01E7CF0E94D10682B18F71CF
:1021000090918C01E0CF0895EF92FF920F931F936F
:10211000CF93E82EF12C870109591B4FF8019081CC
:10212000911139C02091A20C3091A30C082E02C04D
:10213000369527950A94E2F720FD2DC0C82F0E94FE
:102140001910CF3071F580919C0C90919D0C8D7D74
:1021500080620E9487068091B20080935304809130
:102160004A048823A9F0F701E65CFE4F208181E054
:1021700090E002C0880F991F2A95E2F720914B0446
:1021800030914C04822B932B90936E1E80936D1E86
:1021900081E0F8018083CF911F910F91FF90EF9024
:1021A0000895CE3031F480919C0C90919D0C826208
:1021B000D0CF20919C0C30919D0C81E090E00E2CB2
:1021C00002C0880F991F0A94E2F7822B932B0E947A
:1021D00087068091B200F701E25BFB4F8083BFCF9F
:1021E000E82FF0E0E959FB4F10822091460430912E
:1021F0004704082E02C0369527950A94E2F720FF7F
:1022000003C060E00C9419100895E62F642F90919C
:10221000431E41113FC0891382C0E252EB3108F0E6
:102220007EC0F0E0EA5EFE4E0C94524D3C1131113E
:1022300031118F1134113E113411361140118F11AB
:102240008F11381142113811381144113A114611C9
:102250008F118F118F118F118F118F118F118F117E
:10226000481188E00C94F01089E0FCCF8AE0FACFA6
:102270008BE0F8CF82E0F6CF83E0F4CF84E0F2CFBA
:102280008EE0F0CF8FE0EECF87E0ECCF86E0EACFB4
:10229000129A0895891343C0E252EB3108F03FC00F
:1022A000F0E0EB5AFE4E0C94524D7B117011701100
:1022B0008F1173117D11731175117F118F118F1192
:1022C00077118111771177118511791183118F1190
:1022D0008F118F118F118F118F118F118F11871106
:1022E00088E00C94841089E0FCCF8AE0FACF8BE080
:1022F000F8CF82E0F6CF83E0F4CF84E0F2CF8EE037
:10230000F0CF8FE0EECF86E0ECCF87E0EACF809190
:10231000A20C80FD04C0129881E080935E040895B1
:102320009091431E981340C062526B3108F03CC03C
:10233000E62FF0E0E256FE4E0C94524DC411B91156
:10234000B911D411BC11C611BC11BE11C811D411E0
:10235000D411C011CA11C011C011CE11C211CC11BB
:10236000D411D411D411D411D411D411D411D41145
:10237000D01188E00C94F01089E0FCCF8AE0FACF0D
:102380008BE0F8CF82E0F6CF83E0F4CF84E0F2CFA9
:102390008EE0F0CF8FE0EECF86E0ECCF87E0EACFA3
:1023A0008091460480FD129A0895CF92DF92EF92B9
:1023B000FF920F931F93CF93DF934091CE0C89EC44
:1023C00095E0489F9001499F300D1124F901E8568E
:1023D000FD4EEF01C15FDB4FDF01AF5DBB4FED5D38
:1023E000FB4F8D919C91119740815181842B952BAE
:1023F000998388838091EC019091ED01049709F411
:1024000055C01091EB010091A40190E080E0C12C37
:10241000D12C7601C3944D915C911197082E02C086
:10242000569547950A94E2F740FF14C01E3091F488
:10243000B701A601082E04C0440F551F661F771F61
:102440000A94D2F7409550956081718146235723B5
:102450005183408340815181082E02C05695479593
:102460000A94E2F740FF1DC01F30D9F4B701A6015E
:10247000082E04C0440F551F661F771F0A94D2F719
:10248000409550956D917C91119746235723119655
:102490005C934E93AC01420F531F4354584EEA01D4
:1024A000088301968031910509F0B5CFDF91CF9176
:1024B0001F910F91FF90EF90DF90CF9008952091A2
:1024C000CE0C30E0A4EDB0E189EC95E0289FA001AE
:1024D000299F500D389F500D112448565D4E90E0B5
:1024E00080E0FC01EB5FFB4FE40FF51F6081718121
:1024F0006D937D9302968032910599F769EC75E0B2
:10250000269FC001279F900D369F900D112488565D
:102510009D4EFC01FC5F60816093CF10319660811D
:102520006093D010329660816093D21031966081B2
:102530006093D310EF53FE4F6081609394128853E1
:102540009A4FDC018C9180939712A4E1B2E190E064
:1025500080E0861748F4FC01EB5BFA4FE40FF51FAF
:1025600070817D930196F5CF49EC55E0249FC00121
:10257000259F900D349F900D112488569D4E2FEC71
:102580003CE050E040E0BA016B5B7B4FF901E60FA5
:10259000F71F680F791FDB016C9160834F5F5F4FFE
:1025A0004031510581F74096205F3F4FBDE02F3C01
:1025B0003B0739F708952091CE0C30E0A4EDB0E14F
:1025C00089EC95E0289FA001299F500D389F500D60
:1025D000112448565D4E90E080E06D917D91FC01A4
:1025E000EB5FFB4FE40FF51F71836083029680322F
:1025F000910599F769EC75E0269FC001279F900D22
:10260000369F900D112488569D4EFC01FC5F609111
:10261000CF10608331966091D010608332966091C4
:10262000D210608331966091D310608360919412D0
:10263000EF53FE4F608388539A4F70919712DC01DD
:102640007C93A4E1B2E190E080E0861748F47D91AC
:10265000FC01EB5BFA4FE40FF51F70830196F5CF99
:102660004FEC5CE069EC75E0269FC001279F900D60
:10267000369F900D112488569D4E30E020E0B90120
:102680006B5B7B4FFC01E60FF71F640F751FDB01CF
:102690006C9160832F5F3F4F2031310581F7405FA0
:1026A0005F4F4096BDE04F3C5B0739F7089520919E
:1026B000CE0C30E08091C70C81111AC049EC55E076
:1026C000249FC001259F900D349F900D11248856A2
:1026D0009D4EFC01E953FA4F40814093C40C8A534C
:1026E0009A4F4091341EFC018081481B4093C50CD9
:1026F0007091A4016091A6015091A50189EC95E02B
:10270000289FF001299FF00D389FF00D1124E3560A
:10271000F84E90E080E040E5A0A1A11101C070A3B7
:10272000DF01A055B1096C9350975C934193DF0191
:10273000A15CB1094C93478701968031910561F7FF
:1027400089EC95E0289FF001299FF00D389FF00D4E
:102750001124E756F94E8081803191F018F48C30C5
:1027600049F00895883119F0803241F008951092AF
:10277000271F089581E08093271F089582E0FBCFF3
:1027800083E0F9CF8F929F92AF92BF92CF92DF9268
:10279000EF92FF920F931F93CF93DF932091CE0C74
:1027A00089EC95E0289FB001299F700D1124FB0151
:1027B000E354F94E30E020E0C1E0D0E0C12CD12C50
:1027C0007601C394118210828E01022E02C0000F86
:1027D000111F0A94E2F790E080E0DC01AA0FBB1F12
:1027E000A60FB71FA356B94E4D915C9140235123BC
:1027F000452B81F04081518146015701082E04C0CC
:10280000880C991CAA1CBB1C0A94D2F74829592988
:1028100051834083019680319105F9F62F5F3F4F38
:1028200032962031310571F6DF91CF911F910F91D2
:10283000FF90EF90DF90CF90BF90AF909F908F90E0
:102840000895EF92FF920F931F93CF93DF9381E050
:102850008093CD0C2091CE0C30E080917B1E8111B5
:1028600063C089EC95E0289FB001299F700D389FC7
:10287000700D1124DB01A356B94EAB0148565D4ED5
:1028800087E39AEF289F7001299FF00C389FF00C86
:10289000112490E080E0ED91FC9111979F01369515
:1028A0002795E0FF3DC0306811963C932E93FA01C6
:1028B000EE0DFF1DE60FF71F9C0121573E4FE9016A
:1028C00028818F010B5B1B4FE8013881EC5AFB4FCD
:1028D000231728F49C0121563E4FE90128812083CB
:1028E00030E020E02F5F3F4FFA01E20FF31F8F012E
:1028F0000B5B1B4FE8011881EC5BFB4F10832F3003
:10290000310581F701961296405F5F4F8031910546
:1029100011F6DF91CF911F910F91FF90EF900895E5
:1029200011963C932E93DCCF8091EB0190E0DC017B
:10293000AA0FBB1F49EC55E0249FB001259F700DE5
:10294000349F700D1124A60FB71FA356B94EED91F9
:10295000FC911197AF0156954795E0FF43C0506831
:102960004D935C93FC01E157FE4F4081FC0154E024
:10297000EE0FFF1F5A95E1F7E60FF71FE856FD4EE1
:10298000DF01AB5BBB4F5C91EC5AFB4F451720F46A
:10299000DC01A156BE4F4C91408369EC75E0269F47
:1029A000A001279F500D369F500D112424E0880F61
:1029B000991F2A95E1F7840F951F50E040E04F5F83
:1029C0005F4F9A01280F391F28563D4EF901EB5BE6
:1029D000FB4F60812C5B3B4FF90160834F30510509
:1029E00071F797CF4D935C93D8CFEF92FF920F93EF
:1029F0001F93CF93DF9381E08093CD0C2091CE0C79
:102A000030E080917B1E811163C089EC95E0289FA6
:102A1000B001299F700D389F700D1124DB01A35662
:102A2000B94EAB0148565D4E87E39AEF289F70017F
:102A3000299FF00C389FF00C112490E080E0ED917C
:102A4000FC9111979F01220F331FF7FF3DC02160BA
:102A500011963C932E93FA01EE0DFF1DE60FF71F22
:102A60009C0121573E4FE90128818F010C5A1B4FD1
:102A7000E8013881EB5BFB4F231728F49C012156BA
:102A80003E4FE901288120832FE030E021503109B9
:102A9000FA01E20FF31F8F010B5B1B4FE801188156
:102AA000EA5BFB4F10832115310581F701961296E1
:102AB000405F5F4F8031910511F6DF91CF911F91FB
:102AC0000F91FF90EF90089511963C932E93DCCFD9
:102AD0008091EB0190E0DC01AA0FBB1F49EC55E0AF
:102AE000249FB001259F700D349F700D1124A60FF7
:102AF000B71FA356B94EED91FC911197AF01440F4A
:102B0000551FF7FF43C041604D935C93FC01E157B3
:102B1000FE4F4081FC0154E0EE0FFF1F5A95E1F794
:102B2000E60FF71FE856FD4EDF01AC5ABB4F5C9134
:102B3000EB5BFB4F451720F4DC01A156BE4F4C91D7
:102B4000408344E0880F991F4A95E1F769EC75E0EE
:102B5000269FA001279F500D369F500D1124840FF2
:102B6000951F4FE050E0415051099A01280F391F3D
:102B700028563D4EF901EB5BFB4F60812A5B3B4FD2
:102B8000F90160834115510571F797CF4D935C931F
:102B9000D8CFAF92BF92CF92DF92EF92FF920F9376
:102BA0001F93CF93DF938091391E882349F0809142
:102BB0008704882329F01092870481E080937E01A6
:102BC0008091E21E8823E9F08091EB018D30C9F4F9
:102BD0008091EC019091ED01039799F48091870425
:102BE000C1E08C2780938704882341F00E94870DE1
:102BF000C093EE011092391EC093481F81E080936C
:102C00007E0180918704882309F42BC18091241FC1
:102C1000882359F080918E018F5F883008F02CC195
:102C200080938E0181E080937E018091D71E88235E
:102C300059F080918E018150883008F01FC1809337
:102C40008E0181E080937E018091CC1E882319F152
:102C5000809186048150833608F013C180938604E6
:102C60004091CE0CE091860429EC35E0429FC001F2
:102C7000439F900D112488569D4EE80FF92FF11DAA
:102C8000EB5BFA4F40E560818091421E0E94C20DCD
:102C900081E080937E018091CD1E8823B9F0409120
:102CA000CE0CE091860429EC35E0429FC001439FA1
:102CB000900D112488569D4EE80FF92FF11DEB5B06
:102CC000FA4F60818091421E0E94800D8091C11E4A
:102CD000882319F1809186048F5F833608F0D4C071
:102CE000809386044091CE0CE091860429EC35E077
:102CF000429FC001439F900D112488569D4EE80FBE
:102D0000F92FF11DEB5BFA4F40E560818091421E87
:102D10000E94C20D81E080937E018091C21E8823B3
:102D2000B9F04091CE0CE091860429EC35E0429F49
:102D3000C001439F900D112488569D4EE80FF92F36
:102D4000F11DEB5BFA4F60818091421E0E94800D65
:102D500080917F1E882329F01092860481E0809361
:102D60007E018091EE01882309F47BC0C8E5DFE194
:102D700010E000E08CE0C82E99ECE92E95E0F92EE9
:102D8000BB24B39423E6A22ED02E8091771E90917F
:102D9000781E002E02C0969587950A94E2F7282F98
:102DA000217028833981231709F452C02A81211107
:102DB0003DC080FF3BC080918E01602F8C9D600DD7
:102DC00011242091CE0CE09186042E9DC0012F9DF0
:102DD000900D112488569D4EE80FF92FF11DEB5BE5
:102DE000FA4F608340E58091421E0E94C20D80919F
:102DF00086048F5F80938604B092CD0C843610F0E9
:102E0000A09286048091CE0C90E0209186042150FF
:102E10008E9DF0018F9DF00D9E9DF00D1124E35AC3
:102E2000F74E243698F52083B0927E018A8188235C
:102E300069F0888181110AC080918E016D2D8C9D71
:102E4000600D11248091421E0E94800D88818A832A
:102E5000888189830F5F1F4F2B960031110509F080
:102E600093CFDF91CF911F910F91FF90EF90DF9063
:102E7000CF90BF90AF90089587E0D2CE10928E0190
:102E8000E0CE10928604ECCE83E62ACF1082CCCF1F
:102E9000EFE6F0E080818D7F8083109289001092B0
:102EA0008800109281001092800008952091441EA5
:102EB0003091451E40E6429FC001439F900D112472
:102EC0006CE370E00E94E94C9B0150E040E060E858
:102ED00074E88EE190E00E94334D30938900209396
:102EE00088000895CF93DF938091EC019091ED01DC
:102EF0002091EB012C3091F58330910579F52091EB
:102F0000CE0C89EC95E0289FF001299FF00D11244B
:102F1000E05AF74E808161E070E090E00E94420745
:102F200099278E30910514F08DE090E04091CE0C01
:102F300029EC35E0429FF001439FF00D1124E05A47
:102F4000F74E8083209123042817E1F08093230417
:102F500081E08093CD0C80937E0114C0019709F02D
:102F6000D9C08091021F8111D5C080914A1E811164
:102F7000D1C080917B04813009F44CC030F08230A4
:102F800009F473C0DF91CF910895809193049091DB
:102F9000940420917B1E6AE070E0211102C061E080
:102FA00070E00E9442079093940480939304809170
:102FB000930490919404883E23E0920710F087EEEA
:102FC00093E0909394048093930420912104309192
:102FD000220428173907B1F2909322048093210428
:102FE00060918F0442E054E0649F9001659F300D32
:102FF000112429563B4F820F931FFC01828180933D
:10300000331E9091341E891719F081E08093CC0C07
:1030100081E0A1CF8091331E90E020917B1E60E182
:1030200070E0211102C061E070E00E9442078093CD
:10303000331E8091331E90E08038910514F08FE7A5
:1030400090E0282F8093331E40911F04509120045C
:103050008417950709F496CF9093200480931F045A
:103060008091341E2813D1CFD3CF80918F04C2E03A
:10307000D4E08C9FF0018D9FF00D1124E956FB4F99
:103080008081918120917B1E6AE070E0211102C055
:1030900061E070E00E94420720918F042C9FF001B4
:1030A0002D9FF00D1124E956FB4F918380832091D1
:1030B0008F0430E082E094E0289FF001299FF00D1A
:1030C000389FF00D1124E956FB4F80819181883E95
:1030D000F3E09F0710F087EE93E042E054E0249F76
:1030E000F001259FF00D349FF00D1124E956FB4FA0
:1030F0009183808320911D0430911E042817390785
:1031000009F440CF90931E0480931D0481E08093C6
:103110008E0421CF80918704882309F404C1809113
:103120007B04813009F449C010F1823009F4A9C050
:10313000833009F027CF80918E0161E070E090E04C
:103140000E94420799278830910514F087E090E0AB
:1031500080938E01209115043091160482179307F5
:1031600009F410CF909316048093150451CF8091E9
:10317000860490E020917B1E6AE070E0211102C07D
:1031800061E070E00E94420780938604809186048B
:1031900090E08436910514F083E690E080938604F5
:1031A00020911B0430911C048217930709F4EACE86
:1031B00090931C0480931B042BCF2091CE0CE091A4
:1031C0008604C9ECD5E02C9FC0012D9F900D1124E1
:1031D00088569D4EE80FF92FF11DEB5BFA4F808169
:1031E00090E020917B1E6CE070E0211102C061E054
:1031F00070E00E9442079091CE0CE09186049C9F63
:1032000090019D9F300D112428563D4EE20FF32F63
:10321000F11DEB5BFA4F80834091CE0C50E0809122
:10322000860490E029EC35E0429FF001439FF00DC9
:10323000529FF00D1124E80FF91FE352F84E208140
:1032400030E02038310514F02FE730E069EC75E00C
:10325000469FF001479FF00D569FF00D1124E80F97
:10326000F91FE352F84E20838091190490911A04BB
:103270002817390709F486CE30931A0420931904CD
:10328000C7CE8091CE0CC9ECD5E08C9FF0018D9F0C
:10329000F00D1124E35AF74E808190E020917B1EBF
:1032A0006AE070E0211102C061E070E00E94420714
:1032B0009091CE0C9C9FF0019D9FF00D1124E35A3C
:1032C000F74E80832091CE0C30E089EC95E0289F6A
:1032D000F001299FF00D389FF00D1124E35AF74EAD
:1032E000808190E08436910514F083E690E049EC0B
:1032F00055E0249FF001259FF00D349FF00D11241F
:10330000E35AF74E808320911704309118048217F6
:10331000930709F437CE909318048093170481E043
:103320008093CA0C18CE80914A1E882309F4CBC022
:103330008091491E813009F092C080917B048130D8
:1033400009F448C058F1823009F468C0833009F0AC
:1033500019CE8091431E61E070E090E00E94420728
:1033600061E070E0882339F0BC0177276131710595
:1033700014F060E170E06093431E80910E04909120
:103380000F046817790709F4FDCD70930F0460935B
:103390000E048BE190E20E949F3D3EC08091401E52
:1033A00061E070E090E00E94420799278330910528
:1033B00014F082E090E08093401E209114042817BE
:1033C00009F4E0CD8093140481E08093411E809342
:1033D0004B1EC1CD61E070E08091461E9091471E6A
:1033E0000E9442078B3F910510F08AEF90E08E31EA
:1033F000910510F48EE190E09093471E8093461E55
:1034000020911204309113048217930709F4BACD66
:10341000909313048093120481E0D9CF8091421ECF
:1034200061E070E090E00E9442078823A9F09927AC
:103430008131910514F080E190E08093421E20914B
:103440001004309111048217930709F49BCD9093D7
:10345000110480931004E0CF81E090E0EECF823041
:1034600009F090CD80917B048823C1F0813009F070
:1034700089CD80914C1E61E070E090E00E9442078F
:1034800021E0892B09F420E020934C1E80910C044C
:10349000281709F477CD20930C04BECF80913F1EEE
:1034A00061E070E090E00E94420721E0892B09F47E
:1034B00020E020933F1E80910D04281709F462CD6F
:1034C00020930D04A9CF61E070E08091441E90919B
:1034D000451E0E9442078F31910578F19093451E59
:1034E0008093441E8091441E9091451E8A3F910511
:1034F00030F08AEF90E09093451E8093441E8091B7
:10350000441E9091451E20910A0430910B048217AD
:10351000930709F437CD90930B0480930A040E941B
:1035200056178091EC019091ED01039709F070CD51
:103530008091021F81116CCD25CD8EE190E0CECF20
:10354000E1E8F0E010821092800080818A60808340
:103550000E945617EFE6F0E0808182608083089534
:1035600082E08093B0001092B1001092B20099EF07
:103570009093B3008093700008951092B00087E09C
:103580008093B1001092700008958091401E8130A8
:1035900061F018F0823089F008950E94B01A0E94FC
:1035A000E00D0E94040E0C94A01A0E9448170E947D
:1035B000B01A0E94040E0C94C80D0E9448170E9475
:1035C000BD1A0E94E00D0E94F80D10926E1E10921E
:1035D0006D1E1092671E1092661E1092681E08954E
:1035E000109290001092920010929100F894109214
:1035F0009500109294008091C1019091C201909326
:10360000990080939800789482E0809371000895E7
:1036100020919800309199004091CE0C89EC95E072
:10362000489FF001499FF00D1124E456F94EE081C6
:10363000F0E0EE0FFF1FE154FE4F808191812817CB
:10364000390721F090939900809398000895CF93C3
:10365000DF938091651E21E082278093651E809113
:103660003E1E90E060E370E00E94FD4C892B29F43F
:103670008091130282278093130280913E1E9091C5
:10368000CE0C29EC35E0929FF001939FF00D1124B0
:10369000E756F94E608166950E94DD4C911102C09B
:1036A0001092120280913E1E837039F48091C800FE
:1036B00085FFFCCF88EF8093CE008091401E811162
:1036C00009C080913E1E837009F0F5C1119A81E016
:1036D000809365048091391E882309F4DEC18091AE
:1036E0003E1E4091CE0C50E029EC35E0429FF001A7
:1036F000439FF00D529FF00D1124E756F94E308193
:10370000632F0E94DD4C832F8695981305C080910E
:103710003C1E8F5F80933C1E89EC95E0489FF00132
:10372000499FF00D589FF00D1124E856F94E208165
:1037300080913C1E281710F410923C1E1092321EED
:103740001092311E80913E1E632F0E94DD4C91111C
:1037500003C081E080933B1E80913E1EE0912A1EB3
:1037600069EC75E0469FD001479FB00D569FB00DA4
:103770001124A556B94E4C914150550B440F551F7D
:10378000E40FF52FF11DEE0FFF1FE153FE4F4081B7
:103790005181840F952F911D632F70E00E94FD4C85
:1037A000892B09F040C180913B1E882309F43BC15D
:1037B00010923B1E80912A1E91E0892780932A1E39
:1037C000909312028091481E813009F49EC108F442
:1037D0008CC1823009F479C1833009F49EC12091F3
:1037E000CE0C89EC95E0289FA001299F500D112453
:1037F00030E020E0A0913D1E6091311E7091321E9C
:10380000F901EE0FFF1FE40FF51FE356F94E80811B
:10381000918102C096958795AA95E2F781709927C4
:10382000022E02C0880F991F0A94E2F7862B972B6D
:103830009093321E8093311E2F5F3F4F2031310510
:10384000C9F640913D1E2091311E3091321E80916B
:103850002B1E90912C1E02C0969587954A95E2F7F3
:1038600043E0880F991F4A95E1F788709927822BCA
:10387000932B9093321E8093311E0E94081B8091DF
:10388000311E9091321E892B09F462C00E94E70E0E
:103890008091A20C9091A30C2091311E3091321E88
:1038A00036FF02C096FD45C12091311E3091321E77
:1038B00037FD42C19C014091CE0C50E0A0913D1ECD
:1038C00069EC75E0469FF001479FF00D569FF00DA3
:1038D0001124E754F94E6081718102C07695679595
:1038E000AA95E2F760FF02C096FF2AC160913D1ED3
:1038F000A9ECB5E04A9FF0014B9FF00D5A9FF00DE7
:103900001124E554F94E4081518102C056954795E6
:103910006A95E2F740FD1BC14091311E5091321E65
:1039200080919E0C90919F0C2095309524233523F7
:10393000822B932B0E94870685E08093B1008091B3
:103940002F1E9091301E892B19F08BE080939100EF
:1039500020913D1E3091CE0C89EC95E0389FF0010E
:10396000399FF00D1124E356F94E8081918102C0F8
:10397000969587952A95E2F780FF04C0129881E01A
:1039800080935E0420913D1E8091CE0CC9ECD5E061
:103990008C9FF0018D9FF00D1124E954F94E808128
:1039A000918102C0969587952A95E2F780FF20C005
:1039B0000E94870DE0913A1E2091CE0C2C9FC001F1
:1039C0002D9F900D112488569D4EE80FF92FF11D63
:1039D000EB5BFA4F40E560818091421E0E94C20D70
:1039E00081E080937A0480913A1E8F5F80933A1E23
:1039F00080913A1E9091CE0C29EC35E0929FF00117
:103A0000939FF00D1124E35AF74E9081981710F40C
:103A100010923A1E8091EF019091F00101969093DF
:103A2000F0018093EF018091EF019091F0014091BE
:103A3000CE0C29EC35E0429FF001439FF00D11249C
:103A4000E856F94E2081281719063CF5C1E0C093CD
:103A50002D1EC0938C041092F0011092EF01809102
:103A6000CB0C8823D1F08091EC019091ED0102976D
:103A7000A1F41092CB0C83E080938E011092860407
:103A80000E94870D8091CE0C8C278093CE0C0E94D3
:103A900057130E94D5110E94C21380913E1E8F5F62
:103AA00080933E1E80913E1E803610F010923E1E86
:103AB000DF91CF91089580913E1E8370823009F08E
:103AC00009CE11981092650405CE90913D1E80910B
:103AD0002E1E291302C081110FC090913D1E992303
:103AE00071F080912E1E882381F08091EF019091DA
:103AF000F00180933D1E73CE10922E1EF2CF8111E5
:103B0000F0CF81E080932E1EECCF8091EF01909159
:103B1000F001281B20933D1E62CE20E130E040E002
:103B200050E060E070E0CB010E94584A60933D1E77
:103B300056CE9C012062BFCE9C0197FFBCCEFACF2F
:103B400082E090E090939F0C80939E0CE5CE97FDD1
:103B5000E3CE10929F0C10929E0CDECE1F920F921D
:103B60000FB60F9211240BB60F922F933F934F93E2
:103B70005F936F937F938F939F93AF93BF93EF93D5
:103B8000FF930E94271BFF91EF91BF91AF919F91EF
:103B90008F917F916F915F914F913F912F910F90F6
:103BA0000BBE0F900FBE0F901F901895119A0E9498
:103BB000271B0E94271B0E94271B0E94271B11986E
:103BC0000895CF92EF920F93E4E8F4E080E58083CC
:103BD0001182E2E8F4E08083118287E1C82E96E149
:103BE000E92E05E124E143E162E18EE294E00E94E6
:103BF0000B470F91EF90CF900895CF92DF92EF9205
:103C0000FF926B017C0160E5C114D10481E0E806FC
:103C1000F10408F064E580E592E20E947843992778
:103C20008F2D7E2D6D2D80E592E20E9402436C2D3A
:103C300080E592E2FF90EF90DF90CF900C940243EA
:103C40002F923F924F925F926F927F928F929F92AC
:103C5000AF92BF92CF92DF92EF92FF921F93CF93DA
:103C6000DF9300D000D0CDB7DEB7182F282F30E07B
:103C7000A0ECB1E00E945B4D2B013C010E94FD1DB8
:103C8000F12CE12C2091CE0CF701EE0FFF1F49EC37
:103C900055E0249FC001259F900D1124E80FF91FC6
:103CA000E356F94E6081D18080E592E20E940243A2
:103CB0006D2D80E592E20E9402435FEFE51AF50A5E
:103CC00080E1E816F104F1F68091CE0CA9ECB5E0A4
:103CD0008A9FF0018B9FF00D1124E856F94E608108
:103CE00080E592E20E9402438091CE0C29EC35E0FF
:103CF000829FF001839FF00D1124E756F94E6081F9
:103D000080E592E20E9402438091CE0C49EC55E09E
:103D1000849FF001859FF00D1124E556F94E6081D6
:103D200080E592E20E9402438091CE0CA9ECB5E0BE
:103D30008A9FF0018B9FF00D1124E456F94E6081AB
:103D400080E592E20E9402438091CE0C29EC35E09E
:103D5000829FF001839FF00D1124E35AF74E60819A
:103D600080E592E20E9402438091CE0C49EC55E03E
:103D7000849FF001859FF00D1124E25AF74E608177
:103D800080E592E20E9402438091CE0CA9ECB5E05E
:103D90008A9FF0018B9FF00D1124E15AF74E60814C
:103DA00080E592E20E9402438091CE0C29EC35E03E
:103DB000829FF001839FF00D1124E05AF74E60813D
:103DC00080E592E20E94024348E150E05A83498331
:103DD00060E080E592E20E94024389819A81019726
:103DE0009A838983892BA1F780E592E20E9495430B
:103DF00065E070E080E090E00E94A64B212F30E06B
:103E0000A7E0B0E00E945B4D6B017C01812C912CFE
:103E10005401A3019201205C3F4F4F4F5F4F298314
:103E20003A834B835C838BE190E20E949D426981DF
:103E30007A818B819C81680D791D8A1D9B1D0E9452
:103E4000FD1D2401350110E48091CE0C49EC55E0B4
:103E5000849FF001859FF00D1124E856FD4EE40D7E
:103E6000F51DEB5BFA4F608180E592E20E94024310
:103E700011505FEF451A550A650A750A1111E4CF12
:103E800080E592E20E94954365E070E080E090E07A
:103E90000E94A64B80E4880E911CA11CB11C90E8E6
:103EA00089169104A104B10409F0BDCFA3E0CA0EA4
:103EB000D11CE11CF11C1601270196E0220C331CD9
:103EC000441C551C9A95D1F7F12CE12C8BE190E222
:103ED0000E949D42C201B1010E94FD1D470114E0F4
:103EE000B12CA12C340184E0660C771C8A95E1F793
:103EF0008091CE0C29EC35E0829FF001839FF00D7C
:103F00001124E60DF71DEA0DFB1DE352F94E608109
:103F100080E592E20E9402433FEFA31AB30A40E118
:103F2000A416B10429F711505FEF851A950A1111F3
:103F3000D7CF80E592E20E94954365E070E080E093
:103F400090E00E94A64B80E4280E311C411C511CBD
:103F500094E0E90EF11CA0E1EA16F10409F0B6CFF5
:103F60000F900F900F900F90DF91CF911F91FF90C6
:103F7000EF90DF90CF90BF90AF909F908F907F9009
:103F80006F905F904F903F902F9008954F925F9267
:103F90006F927F928F929F92AF92BF92CF92DF9259
:103FA000EF92FF921F93CF93DF9390918F0422E0C3
:103FB00034E0929FF001939FF00D1124E956FB4FDE
:103FC00020819181DF01BC5F2C93EF5FFB4F9083D9
:103FD00090E0B0E0A0E06C017D018AE0CC0CDD1C3B
:103FE000EE1CFF1C8A95D1F7812C912C540180EE98
:103FF000D80EE11CF11CC2E0D4E0C701B601680D87
:10400000791D8A1D9B1D0E94FD1D2401350110E4B0
:1040100080918F048C9FF0018D9FF00D1124E95643
:10402000FB4FE40DF51D628180E592E20E940243A0
:1040300011508FEF481A580A680A780A1111E8CF10
:1040400080E592E20E94954365E070E080E090E0B8
:104050000E94A64B80E4880E911CA11CB11C811407
:1040600084E09806A104B10441F6DF91CF911F913D
:10407000FF90EF90DF90CF90BF90AF909F908F9088
:104080007F906F905F904F900895CF93DF9360E0A3
:1040900070E281E090E00E94FD1DCFE3DEE16981E6
:1040A00080E592E20E9402436F8180E592E20E94E5
:1040B00002436B8180E592E20E9402436C8180E5BD
:1040C00092E20E940243688180E592E20E940243EC
:1040D0006D8580E592E20E94024380E592E20E94B3
:1040E000954365E070E080E090E0DF91CF910C9423
:1040F000A64B8091411E882321F00E94C51A109280
:10410000411E80914B1E882351F08091ED1E882323
:1041100031F00E94452010924B1E0E941809809198
:104120004A1E811102C010924B1E0895BF92CF9279
:10413000DF92EF92FF920F931F93CF93DF93B62EF0
:10414000282F30E0A0ECB1E00E945B4DD0E0C0E051
:104150000B2D10E06B017C0120ECC20E21E0D21E81
:10416000E11CF11C0C171D07F4F06B5D7F4F8F4FA6
:104170009F4F0E94FD1D6C2F80E592E20E9402433A
:104180006B2D80E592E20E94024380E592E20E945C
:10419000954365E070E080E090E00E94A64B219698
:1041A000C701B601D7CFDF91CF911F910F91FF903B
:1041B000EF90DF90CF90BF900895CF92DF92EF9273
:1041C000FF920F931F93CF93DF93062F282F30E09A
:1041D000A0ECB1E00E945B4DD0E0C0E010E06B01CC
:1041E0007C0120ECC20E21E0D21EE11CF11C0C1758
:1041F0001D07F4F06B5D7F4F8F4F9F4F0E94FD1D99
:1042000060E080E592E20E94024360E080E592E295
:104210000E94024380E592E20E94954365E070E0CF
:1042200080E090E00E94A64B2196C701B601D7CF4F
:10423000DF91CF911F910F91FF90EF90DF90CF9082
:1042400008953F924F925F926F927F928F929F92CA
:10425000AF92BF92CF92DF92EF92FF920F931F9394
:10426000CF93DF9340ECC42ED12CE12CF12C10E045
:10427000412C512C32014394C701B601605C710995
:10428000810991090E94FD1DC0E160E080E592E294
:104290000E94024360E080E592E20E940243C15026
:1042A000A1F76FE080E592E20E94024368E180E5B9
:1042B00092E20E94024361E080E592E20E940243A2
:1042C00060E080E592E20E94024360E080E592E2D5
:1042D0000E94024360E080E592E20E94024360E0B7
:1042E00080E592E20E94024360E080E592E20E9453
:1042F000024380E592E20E94954365E070E080E031
:1043000090E00E94A64B4601570120E8821A9108CE
:10431000A108B108C2E0D0E0C501B4010E94FD1DB2
:1043200000E460E080E592E20E9402430150C9F798
:1043300080E592E20E94954365E070E080E090E0C5
:104340000E94A64B30E4830E911CA11CB11C219746
:1043500009F0DBC046015701C4E0D0E0C501B4015B
:104360000E94FD1D04E030E1332E60E080E592E222
:104370000E9402433A943110F8CF0150A1F780E532
:1043800092E20E94954365E070E080E090E00E9438
:10439000A64B219740E4840E911CA11CB11C2097D0
:1043A000E9F6812F869586958695A301920104C032
:1043B000220F331F441F551F8A95D2F7C901209140
:1043C000260430912704822B932B9093270480930B
:1043D000260440E070E060E00E945F061F5F30EC62
:1043E000C30E31E0D31EE11CF11C40ECC41640EEBC
:1043F000D406E104F10409F03FCFD0E0C0E0C12CC5
:1044000090EED92EE12CF12C412C512C3201439409
:104410004601570110E000E0C501B4010E94FD1DF6
:1044200080E4382E60E080E592E20E9402433A94F4
:104430003110F8CF80E592E20E94954365E070E08C
:1044400080E090E00E94A64B0F5F1F4F50E4850E66
:10445000911CA11CB11C00311105F1F6D301C20160
:104460000C2E04C0880F991FAA1FBB1F0A94D2F7F5
:104470002091240430912504822B932B90932504C2
:104480008093240440E070E060E00E945F06219683
:1044900034E0D30EE11CF11CC031D10509F0B8CFD6
:1044A00060E070E281E090E00E94FD1D60E080E548
:1044B00092E20E94024368E780E592E20E94024392
:1044C00061E080E592E20E94024361E080E592E2D1
:1044D0000E94024380E592E20E94954365E070E00D
:1044E00080E090E0DF91CF911F910F91FF90EF90CE
:1044F000DF90CF90BF90AF909F908F907F906F9004
:104500005F904F903F900C94A64BC1E0D0E004CF59
:104510004F925F926F927F928F929F92AF92BF92D3
:10452000CF92DF92EF92FF920F931F93CF93DF937F
:1045300000D000D0CDB7DEB7082F282F30E0A0EC98
:10454000B1E00E945B4D2B013C010E94FD1D80E506
:1045500092E20E94954340E450E060E570E080E51F
:1045600092E20E947543D12CC12C11E080E592E2C9
:104570000E94DF42B82E80E592E20E94DF429091D5
:10458000CE0C9127F601EE0FFF1F49EC55E0949FEA
:104590009001959F300D1124E20FF31FE356F94E61
:1045A000F82EE12CC7018B29918380835FEFC51A18
:1045B000D50A80E1C816D104C9F680E592E20E94CE
:1045C000DF429091CE0C9127A9ECB5E09A9FF001C3
:1045D0009B9FF00D1124E856F94E808380E592E20E
:1045E0000E94DF429091CE0C912729EC35E0929FFA
:1045F000F001939FF00D1124E756F94E808380E57A
:1046000092E20E94DF429091CE0C912749EC55E056
:10461000949FF001959FF00D1124E556F94E80838B
:104620008093C90C80E592E20E94DF429091CE0C0B
:104630009127A9ECB5E09A9FF0019B9FF00D112402
:10464000E456F94E80838093C80C80E592E20E9484
:10465000DF429091CE0C912729EC35E0929FF0013A
:10466000939FF00D1124E35AF74E808380E592E288
:104670000E94DF429091CE0C912749EC55E0949F27
:10468000F001959FF00D1124E25AF74E808380E5EA
:1046900092E20E94DF429091CE0C9127A9ECB5E006
:1046A0009A9FF0019B9FF00D1124E15AF74E8083F1
:1046B00080E592E20E94DF429091CE0C192729EC0E
:1046C00035E0129FF001139FF00D1124E05AF74ED0
:1046D000808348E150E05A83498380E592E20E945A
:1046E000DF4289819A8101979A838983892BA9F76F
:1046F000202F30E0A7E0B0E00E945B4D6B017C0111
:10470000812C912C5401A3019201205C3F4F4F4F0B
:104710005F4F29833A834B835C8301E08BE190E216
:104720000E949D4269817A818B819C81680D791DEF
:104730008A1D9B1D0E94FD1D80E592E20E9495430B
:1047400040E450E060E570E080E592E20E9475434D
:104750002401350110E480E592E20E94DF4290914D
:10476000CE0C902749EC55E0949FF001959FF00DF9
:104770001124E856FD4EE40DF51DEB5BFA4F8083E6
:1047800011505FEF451A550A650A750A1111E3CFFA
:1047900080E4880E911CA11CB11C90E8891691043C
:1047A000A104B10409F0BACFA3E0CA0ED11CE11CE8
:1047B000F11C2601370126E0440C551C661C771CB1
:1047C0002A95D1F71A821982CC24C39439ECA32EEE
:1047D00035E0B32E8BE190E20E949D42C301B2010D
:1047E0000E94FD1D80E592E20E94954340E450E066
:1047F00060E570E080E592E20E947543E980FA800E
:1048000094E0D92E10E000E0470184E0880C991C68
:104810008A95E1F780E592E20E94DF429091CE0C0A
:104820009C259A9DF0019B9DF00D1124E80DF91D2A
:10483000E00FF11FE352F94E80830F5F1F4F0031ED
:10484000110541F7DA94BFEFEB1AFB0AD110DACF6A
:1048500020E4420E511C611C711C49815A814C5F3D
:104860005F4F5A8349834031510509F0B3CF0F9010
:104870000F900F900F90DF91CF911F910F91FF90AC
:10488000EF90DF90CF90BF90AF909F908F907F90F0
:104890006F905F904F9008954F925F926F927F92CA
:1048A0008F929F92AF92BF92CF92DF92EF92FF9240
:1048B0001F93CF93DF9390E0B0E0A0E06C017D0107
:1048C0008AE0CC0CDD1CEE1CFF1C8A95D1F780EE33
:1048D000D80EE11CF11C812C912C5401C2E0D4E0D3
:1048E000C701B6010E94FD1D80E592E20E9495433A
:1048F00040E450E064E570E0C114D10481E0E806D2
:10490000F10410F460E570E080E592E20E947543E6
:104910002401350110E080E592E20E94DF4290918F
:104920008F049C9FF0019D9FF00D1124E956FB4FD1
:10493000DF01A40DB51D12968C931F5F8FEF481AEF
:10494000580A680A780A103431F780E4880E911CFE
:10495000A11CB11C80E4C80ED11CE11CF11C811407
:1049600084E09806A104B10409F0BACFDF01AF5F7B
:10497000BB4F8C9111979C91892798278927918308
:104980008083DF91CF911F91FF90EF90DF90CF90C8
:10499000BF90AF909F908F907F906F905F904F905F
:1049A000089560E070E281E090E00E94FD1D80E5E6
:1049B00092E20E94954340E450E064E570E080E5B7
:1049C00092E20E94754380E592E20E94DF429927BD
:1049D0008330910514F082E090E08093401E80E5E2
:1049E00092E20E94DF4299278B3F910510F08AEFF7
:1049F00090E08E31910510F48EE190E09093471E87
:104A00008093461E80E592E20E94DF42882359F19E
:104A100099278131910514F080E190E08093421E46
:104A200080E592E20E94DF42882301F199278131DB
:104A3000910514F080E190E08093431E80E592E2BE
:104A40000E94DF4291E0811101C090E090933F1EEF
:104A500080E592E20E94DF4291E0811101C090E086
:104A600090934C1E089581E090E0D8CF81E090E0D3
:104A7000E3CFCF93DF930E94D12410923E1E109279
:104A8000F0011092EF01CFE3DEE11A861B8680E091
:104A90000E941C4CBC01990F880B990B0E94364A4E
:104AA00019868F8198859E838D830E94C51A1A82EC
:104AB000DF91CF9108950F931F93462F282F30E059
:104AC000A0ECB1E00E945B4D8B019C01842F90E033
:104AD000B0E0A0E08596A11DB11DBC01CD01600F25
:104AE000711F821F931F0E94FD1D80E592E20E94AC
:104AF000954341E050E060E570E080E592E20E947D
:104B0000754380E592E20E94DF421F910F91089564
:104B10002091CE0C89EC95E0289FF001299FF00DA3
:104B20001124E756F94E8081803199F018F48C30C9
:104B300031F008958831C9F08032F1F0089560E0D5
:104B40008EE294E00E94534764E08EE294E00C947D
:104B5000534760E08EE294E00E94534761E08EE2AA
:104B600094E00E94534762E0F0CF60E08EE294E070
:104B70000E94534761E0E9CF60E08EE294E00E943A
:104B8000534763E0ECCF65E08EE294E00E94534728
:104B900062E772E08EE294E00E9472498091401ECA
:104BA00081110AC06091441E7091451E4AE050E098
:104BB0008EE294E00C94304A6BED8EE294E00E9419
:104BC0007A496BED8EE294E00E947A496BED8EE2B9
:104BD00094E00C947A49FF920F931F93CF93DF9345
:104BE00000D000D01F92CDB7DEB78091021F88237E
:104BF000B1F08091EC019091ED01029781F08091EC
:104C00007A1E81110CC080914A1E811108C041E0BA
:104C10006BE08EE294E00E9456460E94C32580918C
:104C20007E018823A1F010927E0180914A1E882384
:104C300009F4F8C040E060E08EE294E00E9456463D
:104C40008091491E813071F0823009F478C00F9054
:104C50000F900F900F900F90DF91CF911F910F91B8
:104C6000FF90089567EB72E08EE294E00E94724933
:104C7000E0917B04F0E0E658FE4F40E060818EE278
:104C800094E00E945646E0917B04F0E0EE0FFF1F97
:104C9000EE59FE4F608171818EE294E00E9472496C
:104CA00041E060E08EE294E00E9456460E94FB08DC
:104CB00041E060E08EE294E00E945646E091401EA2
:104CC000F0E0EE0FFF1FE452FF4F65917491CE01AB
:104CD00001960E941F50BE016F5F7F4F8EE294E0ED
:104CE0000E94724941E064E08EE294E00E945646E0
:104CF0006091461E7091471E4AE050E08EE294E0BB
:104D00000E94304A41E069E08EE294E00E945646FB
:104D10004AE050E06091421E8EE294E00E94294AEF
:104D200041E06DE08EE294E00E9456464AE050E099
:104D30006091431E8EE294E00E94294A88CF68EC7D
:104D400072E08EE294E00E947249E0917B04F0E010
:104D5000E658FE4F40E060818EE294E00E945646A5
:104D6000E0917B04F0E0EE0FFF1FE65AFE4F6081FA
:104D700071818EE294E00E94724941E060E08EE22F
:104D800094E00E9456460E94FB0841E060E08EE2FB
:104D900094E00E945646E0913F1EF0E0EE0FFF1FA8
:104DA000E852FF4F65917491CE0104960E941F5006
:104DB000BE016C5F7F4F8EE294E00E94724941E039
:104DC00064E08EE294E00E945646E0914C1EF0E0D2
:104DD000EE0FFF1FEC52FF4F65917491CE010196CB
:104DE0000E941F50BE016F5F7F4F8EE294E00E94D1
:104DF000724941E068E08EE294E00E94564669ED17
:104E000072E08EE294E00E94724941E06CE08EE232
:104E100094E00E94564669ED72E08EE294E00E94B2
:104E2000724915CF8091401E8230A9F440E060E0C5
:104E30008EE294E00E9456466DED72E08EE294E0C0
:104E40000E94724941E060E08EE294E00E94564682
:104E500066E372E0E2CF8091EC019091ED01823047
:104E6000910509F4CCC008F092C0009709F4AFC2D4
:104E7000019709F0ECCE40E060E08EE294E00E9401
:104E8000564663E473E08EE294E00E947249E0913A
:104E90007B04F0E0E658FE4F40E060818EE294E053
:104EA0000E945646E0917B04F0E0EE0FFF1FEE58A3
:104EB000FE4F608171818EE294E00E94724941E070
:104EC00060E08EE294E00E9456460E94FB0841E0BA
:104ED00060E08EE294E00E945646609193047091E7
:104EE00094046F5F7F4F4AE050E08EE294E00E94AE
:104EF000304A41E064E08EE294E00E9456466091C0
:104F0000341E62956F706F5B8EE294E00E947A4966
:104F10008091341E682F70E082958F7090E1899F98
:104F20006019710911246F5F7F4F4AE050E08EE2F3
:104F300094E00E94154A41E068E08EE294E00E940D
:104F4000564620918F0482E094E0289FF001299F2B
:104F5000F00D1124E956FB4F608171814AE050E069
:104F60008EE294E00E94304A41E06DE08EE294E0EF
:104F70000E9456466091920470E06F5F7F4F4AE056
:104F800050E08EE294E00E94154A81E074C08530C2
:104F9000910508F473C0059709F059CE8091090472
:104FA000833009F002C241E060E08EE294E00E94AA
:104FB000564663E472E08EE294E00E94724941E05A
:104FC00060E08EE294E00E9456466091351E6F5B71
:104FD0008EE294E00E947A496091341E70E08091E4
:104FE000351E90E1899F6019710911246F5F7F4F11
:104FF0004AE050E08EE294E00E94154A28CE40E05C
:1050000060E08EE294E00E9456466EEE72E08EE220
:1050100094E00E94724941E060E08EE294E00E94D8
:1050200056460E94FB0841E062E08EE294E00E9456
:1050300056466091351E6F5B8EE294E00E947A497D
:105040006091341E70E08091351E90E1899F601957
:10505000710911246F5F7F4F4AE050E08EE294E0C7
:105060000E94154A41E069E08EE294E00E945646B3
:105070000E94C32582E080930904E9CD8091EB0171
:105080008C3021F40E94240983E0F5CF8091F71E33
:10509000882309F457C040E060E08EE294E00E946B
:1050A00056466FEF72E08EE294E00E94724940E053
:1050B00069E08EE294E00E94564687E00E94010972
:1050C0008091CE0C09EC15E0809FF001819FF00DDE
:1050D0001124E556F94E6081685F40E08EE294E06D
:1050E0000E9456466BED8EE294E00E947A4941E0C0
:1050F00060E08EE294E00E94564660E173E08EE24A
:1051000094E00E94724941E068E08EE294E00E94DF
:10511000564688E00E9401098091CE0C809FF001E4
:10512000819FF00D1124E456F94E6081685F41E0E3
:105130008EE294E00E9456466BED8EE294E00E946F
:105140007A49A2CF8091870440E060E0882309F487
:10515000BCC08EE294E00E94564661E273E08EE2AB
:1051600094E00E947249E0917B04F0E0E658FE4F23
:1051700040E060818EE294E00E945646E0917B041C
:10518000F0E0EE0FFF1FE659FE4F608171818EE265
:1051900094E00E94724941E060E08EE294E00E9457
:1051A00056460E94FB0841E061E08EE294E00E94D6
:1051B00056466091860470E06F5F7F4F4AE050E092
:1051C0008EE294E00E94154A41E064E08EE294E0B1
:1051D0000E9456462091CE0CE091860409EC15E021
:1051E000209FC001219F900D112488569D4EE80FED
:1051F000F92FF11DEB5BFA4F80813CE0F32E6F2D10
:105200000E94DD4CE92FF0E0EE0FFF1FE457FF4F47
:1052100065917491CE0104960E941F50BE016C5F8F
:105220007F4F8EE294E00E9472492091CE0CE09173
:105230008604209FC001219F900D112488569D4E09
:10524000E80FF92FF11DEB5BFA4F80816F2D0E9463
:10525000DD4C682F70E04AE050E08EE294E00E945E
:10526000154A41E069E08EE294E00E945646809142
:10527000CE0C809FF001819FF00D1124E35AF74E70
:10528000608170E06F5F7F4F4AE050E08EE294E013
:105290000E94154A41E06DE08EE294E00E9456467D
:1052A000E0918E01F0E0EE0FFF1FEC55FF4F65918E
:1052B0007491CE0101960E941F50BE016F5F7F4F17
:1052C0008EE294E00E947249DFCE8EE294E00E946A
:1052D000564662E373E08EE294E00E94724941E038
:1052E00060E08EE294E00E9456460E94FB0841E096
:1052F00060E08EE294E00E9456466091351E6F5B3E
:105300008EE294E00E947A496091341E70E08091B0
:10531000351E90E1899F6019710911246F5F7F4FDD
:105320004AE050E08EE294E00E94154A41E065E0D8
:105330008EE294E00E9456462091CE0C89EC95E0D6
:10534000289FF001299FF00D1124E856F94E608145
:1053500070E06F5F7F4F4AE050E08EE294E00E9481
:10536000154A41E068E08EE294E00E9456460E94B1
:10537000882541E06CE08EE294E00E945646E09180
:10538000EB01F0E0EE0FFF1FEC54FF4F65917491BD
:10539000CE0101960E941F508091361E882309F489
:1053A0008CCF8A81805E8A8388CF823009F04FCC8F
:1053B00041E062E08EE294E00E94564663E472E0CF
:1053C0008EE294E00E94724941E062E0FACD40E052
:1053D00060E08EE294E00E94564664E573E08EE25F
:1053E00094E00E94724941E060E08EE294E00E9405
:1053F00056460E94FB0841E060E08EE294E00E9485
:10540000564665E673E08EE294E00E947249609130
:105410009304709194046F5F7F4F4AE050E08EE2F6
:1054200094E00E94304A41E068E08EE294E00E94FD
:1054300056466AE673E08EE294E00E9472496091FB
:10544000341E62956F706F5B8EE294E00E947A4921
:105450008091341E682F70E082958F7090E1899F53
:105460006019710911246F5F7F4F4AE050E08EE2AE
:1054700094E00E94154A10920904E9CB0F931F9300
:105480000E94AE040E947B0490E080E00E948706A8
:1054900040E070E060E090E080E00E945F060E94E3
:1054A000B01A0E94F01A20E042E060E18EE294E03F
:1054B0000E946F4642E351E060E08EE294E00E9479
:1054C0002B474AE251E061E08EE294E00E942B47D4
:1054D00042E251E062E08EE294E00E942B474AE112
:1054E00051E063E08EE294E00E942B4742E151E0FC
:1054F00064E08EE294E00E942B474AE051E065E0D0
:105500008EE294E00E942B470E94ED068091600499
:10551000813809F07DC00E9470090E94754B60932C
:1055200061047093620480936304909364040E9406
:1055300066050E94754B00916104109162042091F0
:10554000630430916404601B710B820B930B693808
:1055500073418105910550F480914F1F882339F3E1
:105560008091EC1E882319F30E9421210E94392585
:1055700080E00E944C2480E00E9488228091CE0C22
:1055800091E089278093CE0C0E9457130E94D51179
:105590000E94C21360E083E00E94191090E080E056
:1055A0000E94870661E08BE190E20E94503D60918D
:1055B000431E8BE190E20E949F3D8BE190E20E94AE
:1055C0003C3F78948EE294E00E944F4640E060E0D9
:1055D0008EE294E00E94564660E773E08EE294E02B
:1055E0000E94724941E060E08EE294E00E945646DB
:1055F00061E873E08EE294E00E94724960ED77E02A
:1056000080E090E00E94A64B1F910F910C94EB2537
:1056100080915F04883009F0A9CF0E9490098FE73C
:105620000E94D106FCCF80917A1E8823F1F08091F0
:10563000031F8823D1F091E090934A1E8091491E68
:105640008F5F8093491E10927B0410925C1E109213
:105650005B1E90937E01833060F01092491E109281
:105660004A1E10924B1E0E94EB2580914A1E8823F1
:1056700069F10E9466050E94721780913A1F882383
:1056800051F080917B048F5F8430E8F480937B0439
:1056900081E080937E018091501F882349F0109211
:1056A000491E10924A1E10924B1E81E080937E018B
:1056B0000E9479208091EE1E882319F081E080936A
:1056C0007E010C94EB2510927B04E2CF089580912B
:1056D000401E8230A1F48BE190E20E949D420E9424
:1056E0006F078091460480FD03C08AE00E940A078C
:1056F0000E94B1070E9493080E94132BE8CF0895DF
:105700002F923F924F925F926F927F928F929F92D1
:10571000AF92BF92CF92DF92EF92FF920F931F93BF
:10572000CF93DF9300D000D000D0CDB7DEB781E0BB
:105730000E9498019093781E8093771E8091391E65
:10574000882349F080914A1E882329F010924A1E2E
:1057500081E080937E018091EC019091ED010597AD
:1057600011F01092B91E80914A1E811102C0109250
:10577000491E80913A1F882359F080917B048F5FE6
:10578000843008F0F1C080937B0481E080937E0137
:105790008091501F811104C080917904882301F108
:1057A00001E00093391E1092EE0110923E1E1092FD
:1057B000F0011092EF0110923C1E00932E1E1092E9
:1057C000481F10922A1E10923A1E109213026AEF7E
:1057D00070E08BE190E20E94673F109A00936604AC
:1057E0008091451F882321F080917B1E882341F002
:1057F00080917804811104C0809177048823A1F0FE
:105800000E94100E80917804882309F4B0C0109291
:10581000481F8091481F8F5F8093481F813009F493
:10582000AFC0823009F4BAC020918A1E30917A1E2E
:105830009091951E8091191F332309F4C2C0222331
:1058400069F021E020937E0121E030E03093ED010A
:105850002093EC011092870410924A1E992369F05C
:1058600091E090937E0123E030E03093ED012093AE
:10587000EC0110924A1E10928E04882379F084E085
:1058800090E09093ED018093EC0181E080937E01A4
:105890001092870410924A1E10928E048091AB1EC3
:1058A000882321F08091341E0E945F128091B61EE1
:1058B000882339F08091341E0E94DB1281E08093AE
:1058C000CD0C8091031F8823B9F08091391E81117E
:1058D00013C081E080934A1E8091491E8F5F8093A0
:1058E000491E10927B04833020F01092491E1092C2
:1058F0004A1E81E080937E018091EC019091ED0140
:105900000397029708F054C68091771E9091781EF5
:10591000009711F41092791E20917B1E222309F426
:1059200003C1892B09F400C181E080930604109221
:1059300087040E944904803108F0E5C0E82FF0E0B8
:10594000EC55F34D0C94524D622D622D6C2D6C2D47
:105950006E2D6E2D702D702D722D722D742D782D53
:105960007A2D7A2D8630843010927B040ECF809170
:105970007704882309F44DCF81E08093481F49CFF5
:105980008093EE011092391E6CEF70E08BE190E293
:105990000E94673F10981092660446CF1092EE0165
:1059A00001E00093391E1092481F10923E1E6BEFCB
:1059B00070E08BE190E20E94673F109A00936604CA
:1059C00033CF222359F01092ED011092EC0121E027
:1059D00020937E011092870410924A1E9923B9F0F9
:1059E0002091EC013091ED012330310509F044C0E4
:1059F00022E030E03093ED012093EC0191E09093B0
:105A00007E011092870410924A1E10928E0481111A
:105A10000E94211480910E1F81110E94F514809123
:105A20002F1F882349F08091321F8F5F8093321F90
:105A3000813029F1823031F18091B61E882349F0FE
:105A40008091B91E8F5F8093B91E813009F1823039
:105A500071F18091EC019091ED01059711F0109298
:105A6000B91E80914A1E811102C01092491E809178
:105A7000041F81113ECF40CF23E030E0BBCF0E9416
:105A80003301DACF80E00E948E041092321FD4CF0F
:105A90008091EC019091ED019093381E8093371E18
:105AA00085E090E09093ED018093EC01D2CF80915E
:105AB000371E9091381E9093ED018093EC01109267
:105AC000B91EC7CF88E08093EB018091791E8111C8
:105AD0001AC01092361E17C089E0F5CF8AE0F3CFC6
